:020000040800F2
:10000000000002201D0900085906000865060008C6
:100010006D060008750600087D0600080000000057
:10002000000000000000000000000000850600083D
:1000300091060008000000009D060008A9060008BF
:1000400065090008650900086509000865090008D8
:1000500065090008650900086509000865090008C8
:1000600065090008650900086509000865090008B8
:1000700065090008650900086509000865090008A8
:100080006509000865090008650900086509000898
:100090006509000865090008650900086509000888
:1000A0006509000865090008650900086509000878
:1000B0006509000865090008650900086509000868
:1000C0006509000865090008650900086509000858
:1000D0006509000865090008650900086509000848
:1000E0006509000865090008650900086509000838
:1000F0006509000865090008650900086509000828
:100100006509000865090008650900086509000817
:100110006509000865090008650900086509000807
:1001200065090008650900086509000865090008F7
:1001300065090008650900086509000865090008E7
:1001400065090008650900086509000865090008D7
:1001500065090008650900086509000865090008C7
:1001600065090008650900086509000865090008B7
:1001700065090008650900086509000865090008A7
:0801800065090008650900088B
:1001880080B483B000AF03463960FB7197F907303C
:10019800002B0BDA0D49FB7903F00F03043B3A6897
:1001A800D2B21201D2B20B441A7609E0084997F983
:1001B80007303A68D2B21201D2B20B4483F8002356
:1001C8000C37BD465DF8047B704700BF00ED00E0CA
:1001D80000E100E080B582B000AF78607B68B3F1E1
:1001E800807F01D3012311E00A4A7B6823F07F4313
:1001F800013B53604FF0FF300F21FFF7C1FF054B64
:1002080000229A60034B07221A6000231846083719
:10021800BD4680BD10E000E080B586B002AF2A4B35
:100228001B682A4AA2FB03239B091846FFF7D2FF43
:100238000346002B00D0FEE700F04CF800F05EF813
:1002480000F094F800F0B4F901237B6000233B60D0
:100258000023FB600023BB606FF07F430093012005
:1002680001218022A02300F0EBF8A023FB6026E008
:100278000123BB601DE0BB6803F11601BB685A1E71
:1002880013469B0013445B0103F1A102FB68D31AD8
:100298000F4A52F82330A3F10113A3F5807300939A
:1002A8000846F9680122012300F0CAF8BB68013347
:1002B800BB60BB68542BDEDDFB68013BFB60FB6861
:1002C800002BD5DCFEE700BF00000020D34D6210F4
:1002D800B409000880B400AF064A064B1B6B43F014
:1002E80008031363044B4FF0AA421A60BD465DF839
:1002F800047B704700380240000C024080B400AF15
:10030800174A174B1B6B43F001031363154A154B30
:100318001B6843F408431360124A124B9B6843F46A
:100328004C4393600F4A0F4B1B6A43F0A04343F4BE
:10033800A00313620A4A0A4B5B6C43F4805353646C
:10034800094B40F60F321A80074A074B1B889BB2AD
:1003580043F040039BB21380BD465DF8047B7047B1
:1003680000380240000002400030014080B400AF75
:10037800064A064B5B6B43F040035363044B04226D
:100388001A60BD465DF8047B704700BF0038024024
:100398000008065080B400AF084B1B68002B04D03F
:1003A800064B1B68013B054A1360054B1B6801336C
:1003B800034A1360BD465DF8047B704714000020B3
:1003C8001800002080B483B000AF78607B68064ACC
:1003D800136000BF044B1B68002BFBD10C37BD46D4
:1003E8005DF8047B704700BF1400002080B400AFA4
:1003F800BD465DF8047B704780B485B000AF034606
:10040800FB800D4B08225A83FB88DB01FB800B4ADB
:10041800FB8893810923FB7302E0FB7B013BFB73A1
:10042800FB7B002BF9D1044B08221A831437BD46F5
:100438005DF8047B704700BF0000024000300140B7
:1004480090B587B000AF0446084611461A462346C1
:10045800FB710346BB710B467B7113463B71BB793D
:10046800A02B8CBF01230023DAB2B9793B790B4466
:10047800AA2BCCBF01230023DBB21343DBB2002B32
:1004880000D092E0FB79802B8CBF01230023DAB2E5
:10049800F9797B790B448A2BCCBF01230023DBB28B
:1004A8001343DBB2002B00D07FE02A20FFF7A4FF24
:1004B8004FF48070FFF7A0FFFB799BB203F20113A2
:1004C8009BB21846FFF798FF4FF48070FFF794FF30
:1004D800FB799AB27B799BB213449BB203F5807384
:1004E8009BB21846FFF788FF2B20FFF785FF4FF4D4
:1004F8008070FFF781FFBB799BB203F580739BB2D5
:100508001846FFF779FF4FF48070FFF775FFBB7946
:100518009AB23B799BB213449BB2FF339BB2184605
:10052800FFF76AFFBB6A7B75BB6A1B0A3B75BB6A30
:100538001B0CFB74FB7C9BB203F0F8039AB23B7D67
:100548005B09DBB29BB213439BB29BB203F580738A
:100558003B823B7DDB009BB203F0E0039AB27B7DDC
:10056800DB08DBB29BB213439BB29BB203F58073EB
:10057800FB812C20FFF740FF3B799AB27B799BB235
:1005880012FB03F3BB810123FB820AE03B8A184676
:10059800FFF732FFFB891846FFF72EFFFB8A01336E
:1005A800FB82FA8ABB899A42F0D91C37BD4690BDB6
:1005B80080B584B002AF254A244B1B6843F0400342
:1005C8001360224A214B9B6843F0C003936042F2B8
:1005D8001073FB8002E0FB88013BFB80FB88002B4B
:1005E800F9D10120FFF708FF42F21073FB8002E007
:1005F800FB88013BFB80FB88002BF9D11120FFF71A
:10060800FBFE1320FFF7F8FE2020FFF7F5FE3A2047
:10061800FFF7F2FE40F20510FFF7EEFE3620FFF777
:10062800EBFE4FF4E070FFF7E7FE3820FFF7E4FE3B
:1006380000230093012001218022A023FFF700FF5F
:100648002920FFF7D9FE0837BD4680BD00000240CB
:1006580080B400AFBD465DF8047B704780B400AF3E
:10066800FEE700BF80B400AFFEE700BF80B400AF74
:10067800FEE700BF80B400AFFEE700BF80B400AF64
:10068800BD465DF8047B704780B400AFBD465DF899
:10069800047B704780B400AFBD465DF8047B7047AB
:1006A80080B500AFFFF776FE80BD00BF80B500AF14
:1006B800154A154BD3F8883043F47003C2F88830D4
:1006C800124A124B1B6843F0010313600F4B0022C0
:1006D8009A600E4A0D4B1B6823F0847323F4803311
:1006E80013600A4B0A4A5A60084A084B1B6823F4ED
:1006F80080231360054B0022DA6000F087F8024B74
:100708004FF000629A6080BD00ED00E000380240C2
:100718001030002480B487B000AF00233B61002371
:100728007B610223FB600023BB6002237B60324BAA
:100738009B6803F00C033B613B69042B07D0082B33
:1007480009D0002B3FD12D4B2D4A1A603FE02B4B8F
:100758002C4A1A603BE0284B5B6803F480039B0D2E
:10076800BB60254B5B6803F03F037B60BB68002BD5
:100778000DD0244A7B68B2FBF3F21F4B596847F649
:10078800C0730B409B0903FB02F37B610CE01C4A1E
:100798007B68B2FBF3F2184B596847F6C0730B40FD
:1007A8009B0903FB02F37B61134B5B6803F4403343
:1007B8001B0C01335B00FB607A69FB68B2FBF3F347
:1007C8000E4A136003E00D4B0D4A1A6000BF0A4B36
:1007D8009B6803F0F0031B090B4AD35CDBB23B6157
:1007E800064B1A683B6922FA03F3044A13601C3764
:1007F800BD465DF8047B70470038024000000020C9
:100808000024F40000127A000400002080B483B0B1
:1008180000AF00237B6000233B60354A344B1B68E4
:1008280043F480331360324B1B6803F400333B609E
:100838007B6801337B603B68002B03D17B68B3F591
:10084800A06FF0D12A4B1B6803F40033002B02D0B1
:1008580001233B6001E000233B603B68012B42D150
:10086800234A234B1B6C43F080531364214A214BCA
:100878001B6843F4804313601D4A1D4B9B689360BB
:100888001B4A1B4B9B6843F400439360184A184B60
:100898009B6843F4A0539360154B174A5A60144A57
:1008A800134B1B6843F08073136000BF104B1B6829
:1008B80003F00073002BF9D0104B40F205621A6068
:1008C8000B4A0B4B9B6823F003039360084A084BC1
:1008D8009B6843F00203936000BF054B9B6803F0DD
:1008E8000C03082BF9D10C37BD465DF8047B704723
:1008F800003802400070004008544007003C0240A5
:10090800B4DB0008000000201400002014000020C0
:100918001C000020002103E00B4B5B5843500431BE
:100928000A480B4B42189A42F6D30A4A02E00023BF
:1009380042F8043B084B9A42F9D3FFF7B7FE00F0A0
:100948000FF8FFF769FC7047B4DB000800000020CF
:1009580014000020140000201C000020FEE7000006
:1009680070B50E4B0E4CE41AA41000251E46A54285
:1009780004D056F8253098470135F8E7FFF736FDDB
:10098800084C094BE41AA41000251E46A54204D0C1
:1009980056F8253098470135F8E770BDB4DB0008F4
:1009A800B4DB0008B4DB0008B4DB0008FFFFFF007D
:1009B800FFFFFF00FFFFFF00FFFFFF00FFFFFF003B
:1009C800FFFFFF00FFFFFF00FFFFFF00FFFFFF002B
:1009D800FFFFFF00FFFFFF00FFFFFF00FFFFFF001B
:1009E800FFFFFF00FFFFFF00FFFFFF00FFFFFF000B
:1009F800FFFFFF00FFFFFF00FFFFFF00FFFFFF00FB
:100A0800FFFFFF00FFFFFF00FFFFFF00FFFFFF00EA
:100A1800FFFFFF00FFFFFF00FFFFFF00FFFFFF00DA
:100A2800FFFFFF00FFFFFF00FFFFFF00FFFFFF00CA
:100A3800FFFFFF00FFFFFF00FFFFFF00FFFFFF00BA
:100A4800FFFFFF00FFFFFF00FFFFFF00FFFFFF00AA
:100A5800FFFFFF00FFFFFF00FFFFFF00FFFFFF009A
:100A6800FFFFFF00FFFFFF00FFFFFF00FFFFFF008A
:100A7800FFFFFF00FFFFFF00FFFFFF00FFFFFF007A
:100A8800FFFFFF00FFFFFF00FFFFFF00FFFFFF006A
:100A9800FFFFFF00FFFFFF00FFFFFF00FFFFFF005A
:100AA800FFFFFF00FFFFFF00FFFFFF00FFFFFF004A
:100AB800FFFFFF00FFFFFF00FFFFFF00FFFFFF003A
:100AC800FFFFFF00FFFFFF00FFFFFF00FFFFFF002A
:100AD800FFFFFF00FFFFFF00FFFEFF00FFFFFF001B
:100AE800FFFFFF00FFFFFF00FFFFFF00FDFEFD000F
:100AF800FEFFFE00FDFFFD00FDFFFD00FEFEFE0007
:100B0800FEFEFE00FEFFFE00FEFFFE00FFFFFF00F0
:100B1800FEFFFE00FFFFFF00FFFEFF00FDFFFD00E0
:100B2800FFFFFF00FEFEFE00FFFFFF00FEFFFE00CE
:100B3800FFFFFF00FFFFFF00FEFFFE00FBFFFB00C3
:100B4800FEFEFE00FEFFFE00FFFFFF00FEFFFE00B0
:100B5800FEFEFE00FEFFFE00FFFFFF00FFFFFF009E
:100B6800FFFFFF00FFFFFF00FFFEFF00FFFFFF008A
:100B7800FFFFFF00FFFFFF00FEFFFE00FFFFFF007B
:100B8800FFFEFF00FFFFFF00FFFFFF00FFFFFF006A
:100B9800FFFFFF00FFFFFF00FFFFFF00FFFFFF0059
:100BA800FFFFFF00FFFFFF00FFFFFF00FFFFFF0049
:100BB800FFFFFF00FFFFFF00FFFFFF00FFFFFF0039
:100BC800FFFFFF00FFFFFF00FFFFFF00FFFFFF0029
:100BD800FFFFFF00FFFFFF00FFFFFF00FFFFFF0019
:100BE800FFFFFF00FEFFFE00FFFFFF00FDFFFD000F
:100BF800F6F6F600EAE8EA00BFBFBF00E7E7E7005D
:100C0800FFFFFF00FFFFFF00FFFFFF00FFFFFF00E8
:100C1800FFFFFF00FFFFFF00FFFFFF00FFFFFF00D8
:100C2800FFFFFF00FFFFFF00FFFFFF00FFFFFF00C8
:100C3800FFFFFF00FFFFFF00FFFFFF00FFFFFF00B8
:100C4800FFFFFF00FFFFFF00FFFFFF00FFFFFF00A8
:100C5800FFFFFF00FFFFFF00FFFFFF00FFFFFF0098
:100C6800FFFFFF00FFFFFF00FFFFFF00FFFFFF0088
:100C7800FFFFFF00FFFFFF00FFFFFF00FFFFFF0078
:100C8800FFFFFF00FFFFFF00FFFFFF00FFFFFF0068
:100C9800FFFFFF00FFFFFF00FFFFFF00FFFFFF0058
:100CA800FFFFFF00FFFFFF00FFFFFF00FFFFFF0048
:100CB800FFFFFF00FFFFFF00FFFFFF00FFFFFF0038
:100CC800FFFFFF00FFFFFF00FFFFFF00FFFFFF0028
:100CD800FFFFFF00FFFFFF00FFFFFF00FFFFFF0018
:100CE800FFFFFF00FFFFFF00FFFFFF00FFFFFF0008
:100CF800FFFFFF00FFFFFF00FFFFFF00FFFFFF00F8
:100D0800FFFFFF00FFFFFF00FFFFFF00FFFFFF00E7
:100D1800FFFFFF00FFFFFF00FFFFFF00FFFFFF00D7
:100D2800FFFFFF00FFFFFF00FFFFFF00FFFFFF00C7
:100D3800FFFFFF00FFFFFF00FFFFFF00FFFFFF00B7
:100D4800FFFFFF00FFFFFF00FFFFFF00FFFFFF00A7
:100D5800FFFFFF00FFFFFF00FFFFFF00FFFFFF0097
:100D6800FEFFFE00FFFFFF00FFFFFF00FEFEFE008C
:100D7800FCFEFC00FEFFFE00FFFFFF00FEFFFE0082
:100D8800FBFDFB00F7E8F700F6D8F600F1C9F10023
:100D9800F2C1F200EFB5EF00F0B5F000F0B4F000EA
:100DA800F0B5F000EFB4EF00EFB7EF00F4C9F400CE
:100DB800F4D3F400F7E3F700FAF5FA00FEFFFE00BB
:100DC800FFFFFF00FEFFFE00FBFFFB00FDFDFD0037
:100DD800FEFFFE00FFFFFF00FFFFFF00FFFFFF0019
:100DE800FFFFFF00FFFFFF00FFFFFF00FFFFFF0007
:100DF800FFFEFF00FFFFFF00FFFFFF00FFFFFF00F8
:100E0800FFFFFF00FFFFFF00FFFFFF00FFFFFF00E6
:100E1800FFFFFF00FFFFFF00FFFFFF00FFFFFF00D6
:100E2800FFFFFF00FFFFFF00FFFFFF00FFFFFF00C6
:100E3800FFFFFF00FFFFFF00FFFFFF00FFFFFF00B6
:100E4800FEFEFE00FFFFFF00FFFFFF00FFFFFF00A9
:100E5800FFFFFF00FFFFFF00FFFFFF00FEFFFE0098
:100E6800FFFFFF00FFFFFF00E1E1E100B3AFB300C8
:100E78008A888A009A989A00F5F5F500FFFFFF0026
:100E8800FFFFFF00FFFFFF00FFFFFF00FFFFFF0066
:100E9800FFFFFF00FFFFFF00FFFFFF00FFFFFF0056
:100EA800FFFFFF00FFFFFF00FFFFFF00FFFFFF0046
:100EB800FFFFFF00FFFFFF00FFFFFF00FFFFFF0036
:100EC800FFFFFF00FFFFFF00FFFFFF00FFFFFF0026
:100ED800FFFFFF00FFFFFF00FFFFFF00FFFFFF0016
:100EE800FFFFFF00FFFFFF00FFFFFF00FFFFFF0006
:100EF800FFFFFF00FFFFFF00FFFFFF00FFFFFF00F6
:100F0800FFFFFF00FFFFFF00FFFFFF00FFFFFF00E5
:100F1800FFFFFF00FFFFFF00FFFFFF00FFFFFF00D5
:100F2800FFFFFF00FFFFFF00FFFFFF00FFFFFF00C5
:100F3800FFFFFF00FFFFFF00FFFFFF00FFFFFF00B5
:100F4800FFFFFF00FFFFFF00FFFFFF00FFFFFF00A5
:100F5800FFFFFF00FFFFFF00FFFFFF00FFFFFF0095
:100F6800FFFFFF00FFFFFF00FFFFFF00FFFFFF0085
:100F7800FFFFFF00FFFFFF00FFFFFF00FFFFFF0075
:100F8800FFFFFF00FFFFFF00FFFFFF00FFFFFF0065
:100F9800FFFFFF00FFFFFF00FFFFFF00FFFFFF0055
:100FA800FFFFFF00FFFFFF00FFFFFF00FFFFFF0045
:100FB800FFFFFF00FFFFFF00FFFFFF00FFFFFF0035
:100FC800FFFFFF00FFFFFF00FFFFFF00FFFFFF0025
:100FD800FFFFFF00FFFFFF00FFFFFF00FFFFFF0015
:100FE800FFFFFF00FFFFFF00FFFEFF00FFFFFF0006
:100FF800FFFFFF00F5EAF500EBB4EB00E688E6003A
:10100800E168E100DC56DC00DF45DF00DB34DB00B3
:10101800DA2CDA00D923D900D923D900D923D90069
:10102800D922D900D921D900DB26DB00DC35DC0048
:10103800DD3CDD00DF4EDF00E05FE000E47EE40041
:10104800EBAEEB00F5E3F500FDFFFD00FFFFFF0051
:10105800FFFFFF00FFFFFF00FFFFFF00FFFFFF0094
:10106800FFFFFF00FFFFFF00FFFFFF00FFFFFF0084
:10107800FFFFFF00FFFFFF00FFFFFF00FFFFFF0074
:10108800FFFFFF00FFFFFF00FFFFFF00FFFFFF0064
:10109800FFFFFF00FFFFFF00FFFFFF00FFFFFF0054
:1010A800FFFFFF00FFFFFF00FFFFFF00FFFFFF0044
:1010B800FFFFFF00FFFFFF00FFFFFF00FFFFFF0034
:1010C800FFFFFF00FFFFFF00FFFFFF00FFFFFF0024
:1010D800FFFFFF00FFFFFF00FFFFFF00FFFFFF0014
:1010E800CAC9CA00726C720042394200807C800012
:1010F800D4D2D400FFFFFF00FFFFFF00FFFFFF0077
:10110800FFFFFF00FFFFFF00FFFFFF00FFFFFF00E3
:10111800FFFFFF00FFFFFF00FFFFFF00FFFFFF00D3
:10112800FFFFFF00FFFFFF00FFFFFF00FFFFFF00C3
:10113800FFFFFF00FFFFFF00FFFFFF00FFFFFF00B3
:10114800FFFFFF00FFFFFF00FFFFFF00FFFFFF00A3
:10115800FFFFFF00FFFFFF00FFFFFF00FFFFFF0093
:10116800FFFFFF00FFFFFF00FFFFFF00FFFFFF0083
:10117800FFFFFF00FFFFFF00FFFFFF00FFFFFF0073
:10118800FFFFFF00FFFFFF00FFFFFF00FFFFFF0063
:10119800FFFFFF00FFFFFF00FFFFFF00FFFFFF0053
:1011A800FFFFFF00FFFFFF00FFFFFF00FFFFFF0043
:1011B800FFFFFF00FFFFFF00FFFFFF00FFFFFF0033
:1011C800FFFFFF00FFFFFF00FFFFFF00FFFFFF0023
:1011D800FFFFFF00FFFFFF00FFFFFF00FFFFFF0013
:1011E800FFFFFF00FFFFFF00FFFFFF00FFFFFF0003
:1011F800FFFFFF00FFFFFF00FFFFFF00FFFFFF00F3
:10120800FFFFFF00FFFFFF00FFFFFF00FFFFFF00E2
:10121800FFFFFF00FFFFFF00FFFFFF00FFFFFF00D2
:10122800FFFFFF00FFFFFF00FFFFFF00FFFFFF00C2
:10123800FFFFFF00FFFFFF00FFFFFF00FFFFFF00B2
:10124800FFFFFF00FFFFFF00FFFFFF00FFFFFF00A2
:10125800FFFFFF00FEFEFE00FDFFFD00FFFFFF0099
:10126800FEFEFE00FEFFFE00FDFDFD00E7B6E70006
:10127800E063E000DB37DB00DE30DE00E029E00081
:10128800DF27DF00E029E000DE29DE00DE2CDE00BB
:10129800DC2ADC00E029E000DE29DE00DE29DE00B1
:1012A800DF28DF00E12BE100DE29DE00DF2ADF0096
:1012B800E029E000E029E000DC2ADC00DF28DF008C
:1012C800E02FE000DA35DA00DB56DB00E8ADE800B5
:1012D800F8FEF800FEFEFE00FDFFFD00FDFFFD002C
:1012E800FDFFFD00FEFEFE00FDFFFD00FFFFFF000D
:1012F800FFFFFF00FFFFFF00FFFFFF00FFFFFF00F2
:10130800FFFFFF00FFFFFF00FFFFFF00FFFFFF00E1
:10131800FFFFFF00FFFFFF00FFFFFF00FFFFFF00D1
:10132800FFFFFF00FFFFFF00FFFFFF00FFFFFF00C1
:10133800FFFFFF00FFFFFF00FFFFFF00FFFFFF00B1
:10134800FFFFFF00FFFFFF00FFFFFF00FDFDFD00A7
:10135800FEFEFE00FFFFFF00B6B4B600484248009C
:1013680020172000504A5000D7D6D700FBFBFB00BF
:10137800FFFFFF00FFFFFF00FFFFFF00FFFFFF0071
:10138800FFFFFF00FFFFFF00FFFFFF00FFFFFF0061
:10139800FFFFFF00FFFFFF00FFFFFF00FFFFFF0051
:1013A800FFFFFF00FFFFFF00FFFFFF00FFFFFF0041
:1013B800FFFFFF00FFFFFF00FFFFFF00FFFFFF0031
:1013C800FFFFFF00FFFFFF00FFFFFF00FFFFFF0021
:1013D800FFFFFF00FFFFFF00FFFFFF00FFFFFF0011
:1013E800FFFFFF00FFFFFF00FFFFFF00FFFFFF0001
:1013F800FFFFFF00FFFFFF00FFFFFF00FFFFFF00F1
:10140800FFFFFF00FFFFFF00FFFFFF00FFFFFF00E0
:10141800FFFFFF00FFFFFF00FFFFFF00FFFFFF00D0
:10142800FFFFFF00FFFFFF00FFFFFF00FFFFFF00C0
:10143800FFFFFF00FFFFFF00FFFFFF00FFFFFF00B0
:10144800FFFFFF00FFFFFF00FFFFFF00FFFFFF00A0
:10145800FFFFFF00FFFFFF00FFFFFF00FFFFFF0090
:10146800FFFFFF00FFFFFF00FFFFFF00FFFFFF0080
:10147800FFFFFF00FFFFFF00FFFFFF00FFFFFF0070
:10148800FFFFFF00FFFFFF00FFFFFF00FFFFFF0060
:10149800FFFFFF00FFFFFF00FFFFFF00FFFFFF0050
:1014A800FFFFFF00FFFFFF00FFFFFF00FFFFFF0040
:1014B800FFFFFF00FFFFFF00FFFFFF00FFFFFF0030
:1014C800FFFFFF00FFFFFF00FFFFFF00FFFFFF0020
:1014D800FFFFFF00FAFFFA00FFFDFF00FCF8FC0029
:1014E800F5DCF500E38AE300D432D400DE23DE0025
:1014F800DD25DD00DC2ADC00DF28DF00DB2ADB005D
:10150800DC29DC00DB29DB00DA2EDA00DF31DF0042
:10151800DF34DF00DB39DB00DB3CDB00DB3DDB00FD
:10152800D83FD800D83FD800D83FD800DB3DDB00F3
:10153800DC3ADC00DC3ADC00DE33DE00DC31DC00E7
:10154800DA2CDA00DD28DD00E226E200DA23DA0010
:10155800D834D800E192E100F8DFF800FCF7FC008D
:10156800FDFFFD00FFFFFF00FEFFFE00FFFFFF0085
:10157800FFFFFF00FEFFFE00FFFEFF00FFFFFF0072
:10158800FFFFFF00FFFFFF00FFFFFF00FFFFFF005F
:10159800FFFFFF00FFFFFF00FFFFFF00FFFFFF004F
:1015A800FFFFFF00FFFFFF00FFFFFF00FFFEFF0040
:1015B800FFFFFF00FFFFFF00FFFFFF00FFFFFF002F
:1015C800FFFFFF00FFFFFF00F8FAF800E9E9E90074
:1015D8009D9B9D00312D31001B121B00332A3300C7
:1015E80097969700FFFFFF00FDFDFD00FFFFFF003E
:1015F800FFFFFF00FFFFFF00FFFFFF00FFFFFF00EF
:10160800FFFFFF00FFFFFF00FFFFFF00FFFFFF00DE
:10161800FFFFFF00FFFFFF00FFFFFF00FFFFFF00CE
:10162800FFFFFF00FFFFFF00FFFFFF00FFFFFF00BE
:10163800FFFFFF00FFFFFF00FFFFFF00FFFFFF00AE
:10164800FFFFFF00FFFFFF00FFFFFF00FFFFFF009E
:10165800FFFFFF00FFFFFF00FFFFFF00FFFFFF008E
:10166800FFFFFF00FFFFFF00FFFFFF00FFFFFF007E
:10167800FFFFFF00FFFFFF00FFFFFF00FFFFFF006E
:10168800FFFFFF00FFFFFF00FFFFFF00FFFFFF005E
:10169800FFFFFF00FFFFFF00FFFFFF00FFFFFF004E
:1016A800FFFFFF00FFFFFF00FFFFFF00FFFFFF003E
:1016B800FFFFFF00FFFFFF00FFFFFF00FFFFFF002E
:1016C800FFFFFF00FFFFFF00FFFFFF00FFFFFF001E
:1016D800FFFFFF00FFFFFF00FFFFFF00FFFFFF000E
:1016E800FFFFFF00FFFFFF00FFFFFF00FFFFFF00FE
:1016F800FFFFFF00FFFFFF00FFFFFF00FFFFFF00EE
:10170800FFFFFF00FFFFFF00FFFFFF00FFFFFF00DD
:10171800FFFFFF00FFFFFF00FFFFFF00FFFFFF00CD
:10172800FFFFFF00FFFFFF00FFFFFF00FFFFFF00BD
:10173800FFFFFF00FFFFFF00FFFFFF00FFFFFF00AD
:10174800FFFFFF00FFFFFF00FFFFFF00FFFFFF009D
:10175800FFFFFF00FDF9FD00F0C9F000E475E400AB
:10176800DA29DA00DE1FDE00DE26DE00DF28DF00F1
:10177800DC2ADC00DC26DC00D921D900DF37DF00D9
:10178800E154E100E26FE200E693E600ECB7EC001A
:10179800F0D1F000F4E8F400FFFFFF00FFFFFF00C6
:1017A800FFFFFF00FFFFFF00FEFFFE00FFFFFF003F
:1017B800FBFAFB00F5E6F500EECBEE00EDAEED0032
:1017C800EA88EA00E267E200E050E000DC31DC0091
:1017D800D721D700DE1DDE00D623D600E478E4004A
:1017E800F2CAF200FDFFFD00FDFFFD00FEFEFE0057
:1017F800FFFFFF00FFFFFF00FFFFFF00FFFFFF00ED
:10180800FFFFFF00FFFFFF00FFFFFF00FFFFFF00DC
:10181800FFFFFF00FFFFFF00FFFFFF00FFFFFF00CC
:10182800FFFFFF00FFFFFF00FFFFFF00FFFFFF00BC
:10183800FFFFFF00FFFEFF00FFFFFF00FFFFFF00AD
:10184800F3F3F300C2C1C20079757900231D2300A8
:10185800100610003227320079757900E9E9E900AD
:10186800FFFFFF00FEFEFE00FFFFFF00FFFFFF007F
:10187800FFFFFF00FFFFFF00FFFFFF00FFFFFF006C
:10188800FFFFFF00FFFFFF00FFFFFF00FFFFFF005C
:10189800FFFFFF00FFFFFF00FFFFFF00FFFFFF004C
:1018A800FFFFFF00FFFFFF00FFFFFF00FFFFFF003C
:1018B800FFFFFF00FFFFFF00FFFFFF00FFFFFF002C
:1018C800FFFFFF00FFFFFF00FFFFFF00FFFFFF001C
:1018D800FFFFFF00FFFFFF00FFFFFF00FFFFFF000C
:1018E800FFFFFF00FFFFFF00FFFFFF00FFFFFF00FC
:1018F800FFFFFF00FFFFFF00FFFFFF00FFFFFF00EC
:10190800FFFFFF00FFFFFF00FFFFFF00FFFFFF00DB
:10191800FFFFFF00FFFFFF00FFFFFF00FFFFFF00CB
:10192800FFFFFF00FFFFFF00FFFFFF00FFFFFF00BB
:10193800FFFFFF00FFFFFF00FFFFFF00FFFFFF00AB
:10194800FFFFFF00FFFFFF00FFFFFF00FFFFFF009B
:10195800FFFFFF00FFFFFF00FFFFFF00FFFFFF008B
:10196800FFFFFF00FFFFFF00FFFFFF00FFFFFF007B
:10197800FFFFFF00FFFFFF00FFFFFF00FFFFFF006B
:10198800FFFFFF00FFFFFF00FFFFFF00FFFFFF005B
:10199800FFFFFF00FFFFFF00FFFFFF00FFFFFF004B
:1019A800FFFFFF00FFFFFF00FFFFFF00FFFFFF003B
:1019B800FFFFFF00FFFFFF00FEFEFE00FFFFFF002E
:1019C800FFFFFF00FFFFFF00FFFFFF00FEFFFE001D
:1019D800F3D4F300E26FE200DA32DA00DA25DA0053
:1019E800DD28DD00DC2BDC00DF28DF00DD21DD0069
:1019F800DB26DB00DE62DE00E9A2E900F3CAF300C1
:101A0800F8E8F800FEFFFE00FFFFFF00FFFFFF0001
:101A1800FFFFFF00FFFFFF00FEFFFE00FFFFFF00CC
:101A2800FFFFFF00FFFFFF00FFFFFF00FFFFFF00BA
:101A3800FFFFFF00FFFFFF00FFFFFF00FFFFFF00AA
:101A4800FFFFFF00FBFBFB00F6E4F600F1C1F1002D
:101A5800E792E700DA4DDA00DB1FDB00DE1DDE006F
:101A6800DB36DB00E57DE500F9EBF900FEFFFE0063
:101A7800FDFDFD00FEFFFE00FFFFFF00FFFFFF0072
:101A8800FFFFFF00FFFFFF00FFFFFF00FFFFFF005A
:101A9800FFFFFF00FFFFFF00FFFFFF00FFFFFF004A
:101AA800FFFFFF00FFFFFF00FFFFFF00FFFEFF003B
:101AB800FFFFFF00FFFFFF00FFFFFF00A5A3A5003A
:101AC80056525600292029001A111A00170E17001D
:101AD800635F6300CCCACC00FFFFFF00FFFFFF007D
:101AE800FFFFFF00FFFFFF00FFFFFF00FFFFFF00FA
:101AF800FFFFFF00FFFFFF00FFFFFF00FFFFFF00EA
:101B0800FFFFFF00FFFFFF00FFFFFF00FFFFFF00D9
:101B1800FFFFFF00FFFFFF00FFFFFF00FFFFFF00C9
:101B2800FFFFFF00FFFFFF00FFFFFF00FFFFFF00B9
:101B3800FFFFFF00FFFFFF00FFFFFF00FFFFFF00A9
:101B4800FFFFFF00FFFFFF00FFFFFF00FFFFFF0099
:101B5800FFFFFF00FFFFFF00FFFFFF00FFFFFF0089
:101B6800FFFFFF00FFFFFF00FFFFFF00FFFFFF0079
:101B7800FFFFFF00FFFFFF00FFFFFF00FFFFFF0069
:101B8800FFFFFF00FFFFFF00FFFFFF00FFFFFF0059
:101B9800FFFFFF00FFFFFF00FFFFFF00FFFFFF0049
:101BA800FFFFFF00FFFFFF00FFFFFF00FFFFFF0039
:101BB800FFFFFF00FFFFFF00FFFFFF00FFFFFF0029
:101BC800FFFFFF00FFFFFF00FFFFFF00FFFFFF0019
:101BD800FFFFFF00FFFFFF00FFFFFF00FFFFFF0009
:101BE800FFFFFF00FFFFFF00FFFFFF00FFFFFF00F9
:101BF800FFFFFF00FFFFFF00FFFFFF00FFFFFF00E9
:101C0800FFFFFF00FFFFFF00FFFFFF00FFFFFF00D8
:101C1800FFFFFF00FFFFFF00FFFFFF00FFFFFF00C8
:101C2800FFFFFF00FFFFFF00FFFFFF00FFFFFF00B8
:101C3800FFFFFF00FFFFFF00FEFEFE00FFFFFF00AB
:101C4800FFFFFF00FFFFFF00FFFFFF00E59FE5002C
:101C5800DC34DC00DF29DF00E029E000E027E000D9
:101C6800E029E000E322E300D827D800E17EE10084
:101C7800F7DBF700FAF4FA00FDFDFD00FEFEFE00BA
:101C8800FFFEFF00FEFFFE00FFFFFF00FFFFFF005B
:101C9800FFFFFF00FFFFFF00FFFFFF00FFFFFF0048
:101CA800FFFFFF00FFFFFF00FFFFFF00FFFFFF0038
:101CB800FFFFFF00FFFFFF00FFFFFF00FFFFFF0028
:101CC800FFFEFF00FFFFFF00FFFFFF00FAFFFA0023
:101CD800FAFCFA00FBF3FB00F1D0F100DA6ADA0053
:101CE800D823D800DE27DE00D83AD800EBACEB00CA
:101CF800FEFFFE00FFFDFF00FFFFFF00FFFFFF00EC
:101D0800FFFFFF00FFFFFF00FFFFFF00FFFFFF00D7
:101D1800FFFFFF00FFFFFF00FFFFFF00FFFFFF00C7
:101D2800FFFFFF00FFFFFF00FFFFFF00FFFFFF00B7
:101D3800FFFFFF00ADA9AD003B353B00281E280082
:101D4800201720001E141E00221C2200B0AFB00075
:101D5800FAFAFA00FFFFFF00FFFFFF00FFFFFF0096
:101D6800FFFFFF00FFFFFF00FFFFFF00FFFFFF0077
:101D7800FFFFFF00FEFEFE00FFFFFF00FFFFFF006A
:101D8800FFFFFF00FFFFFF00FFFFFF00FFFFFF0057
:101D9800FFFFFF00FFFFFF00FFFFFF00FFFFFF0047
:101DA800FFFFFF00FFFFFF00FFFFFF00FFFFFF0037
:101DB800FFFFFF00FFFFFF00FFFFFF00FFFFFF0027
:101DC800FFFFFF00FFFFFF00FFFFFF00FFFFFF0017
:101DD800FFFFFF00FFFFFF00FFFFFF00FFFFFF0007
:101DE800FFFFFF00FFFFFF00FFFFFF00FFFFFF00F7
:101DF800FFFFFF00FFFFFF00FFFFFF00FFFFFF00E7
:101E0800FFFFFF00FFFFFF00FFFFFF00FFFFFF00D6
:101E1800FFFFFF00FFFFFF00FFFFFF00FFFFFF00C6
:101E2800FFFFFF00FFFFFF00FFFFFF00FFFFFF00B6
:101E3800FFFFFF00FFFFFF00FFFFFF00FFFFFF00A6
:101E4800FFFFFF00FFFFFF00FFFFFF00FFFFFF0096
:101E5800FFFFFF00FFFFFF00FFFFFF00FFFFFF0086
:101E6800FFFFFF00FFFFFF00FFFFFF00FFFFFF0076
:101E7800FFFFFF00FFFFFF00FFFFFF00FFFFFF0066
:101E8800FFFFFF00FFFFFF00FFFFFF00FFFFFF0056
:101E9800FFFFFF00FFFFFF00FFFFFF00FFFFFF0046
:101EA800FFFFFF00FFFEFF00FFFFFF00FFFFFF0037
:101EB800FEFEFE00FFFFFF00FDFFFD00FAFEFA0038
:101EC800FBFBFB00F7E9F700DD5DDD00DD22DD004F
:101ED800DF2ADF00DF28DF00DA29DA00DF2BDF0066
:101EE800DD36DD00DF80DF00F7EFF700FEFFFE00E4
:101EF800FEFFFE00FDFFFD00FEFFFE00FDFFFD00F2
:101F0800FEFFFE00FEFFFE00FEFFFE00FFFFFF00DB
:101F1800FFFFFF00FFFFFF00FFFFFF00FFFFFF00C5
:101F2800FFFFFF00FFFFFF00FFFFFF00FFFFFF00B5
:101F3800FFFFFF00FFFFFF00FFFFFF00FFFFFF00A5
:101F4800FFFFFF00FFFFFF00FFFFFF00FEFEFE0098
:101F5800FEFEFE00FEFEFE00FFFFFF00FEFEFE008E
:101F6800F3D5F300DD5EDD00E130E100D927D900CB
:101F7800E077E000F7EDF700FFFFFF00FFFFFF004D
:101F8800FFFFFF00FFFFFF00FFFFFF00FFFFFF0055
:101F9800FFFFFF00FFFFFF00FFFFFF00FFFFFF0045
:101FA800FFFFFF00FDFDFD00F4F4F400C1BDC1001A
:101FB8003F393F00180E1800211721002117210072
:101FC800261D260069656900F2F2F200FFFFFF0096
:101FD800FFFFFF00FFFFFF00FFFFFF00FFFFFF0005
:101FE800FFFFFF00FFFFFF00FFFFFF00FFFFFF00F5
:101FF800FFFFFF00FFFFFF00FFFFFF00FFFFFF00E5
:10200800FFFFFF00FFFFFF00FFFFFF00FFFFFF00D4
:10201800FFFFFF00FFFFFF00FFFFFF00FFFFFF00C4
:10202800FFFFFF00FFFFFF00FFFFFF00FFFFFF00B4
:10203800FFFFFF00FFFFFF00FFFFFF00FFFFFF00A4
:10204800FFFFFF00FFFFFF00FFFFFF00FFFFFF0094
:10205800FFFFFF00FFFFFF00FFFFFF00FFFFFF0084
:10206800FFFFFF00FFFFFF00FFFFFF00FFFFFF0074
:10207800FFFFFF00FFFFFF00FFFFFF00FFFFFF0064
:10208800FFFFFF00FFFFFF00FFFFFF00FFFFFF0054
:10209800FFFFFF00FFFFFF00FFFFFF00FFFFFF0044
:1020A800FFFFFF00FFFFFF00FFFFFF00FFFFFF0034
:1020B800FFFFFF00FFFFFF00FFFFFF00FFFFFF0024
:1020C800FFFFFF00FFFFFF00FFFFFF00FFFFFF0014
:1020D800FFFFFF00FFFFFF00FFFFFF00FFFFFF0004
:1020E800FFFFFF00FFFFFF00FFFFFF00FFFFFF00F4
:1020F800FFFFFF00FFFFFF00FFFFFF00FFFFFF00E4
:10210800FFFFFF00FFFFFF00FFFFFF00FFFFFF00D3
:10211800FFFFFF00FFFFFF00FFFFFF00FFFFFF00C3
:10212800FFFFFF00FFFFFF00FFFFFF00FFFFFF00B3
:10213800FFFFFF00FFFFFF00FFFDFF00FCFCFC00AE
:10214800EBB1EB00D93FD900DD25DD00DA2DDA004F
:10215800DF28DF00DC24DC00E039E000E57DE50075
:10216800F3DAF300FFFFFF00FFFFFF00FFFFFF00B0
:10217800FFFFFF00FFFFFF00FFFFFF00FEFEFE0066
:10218800FFFFFF00FFFFFF00FFFFFF00FFFFFF0053
:10219800FFFFFF00FFFFFF00FFFFFF00FFFFFF0043
:1021A800FFFFFF00FFFFFF00FFFFFF00FFFFFF0033
:1021B800FFFFFF00FFFFFF00FFFFFF00FFFFFF0023
:1021C800FFFFFF00FFFFFF00FFFFFF00FFFFFF0013
:1021D800FFFFFF00FDFFFD00FEFEFE00FEFFFE000C
:1021E800FEFFFE00FCFFFC00EEC4EE00E26CE20025
:1021F800DC2ADC00DE57DE00F2CFF200FFFFFF0032
:10220800FEFEFE00FEFFFE00FFFFFF00FFFFFF00D7
:10221800FFFFFF00FFFFFF00FFFFFF00FFFFFF00C2
:10222800ECECEC00A7A5A7005351530010071000D1
:102238001E151E001F161F001B121B0058525800A7
:10224800BFBDBF00FFFFFF00FFFFFF00FFFFFF0054
:10225800FFFFFF00FFFFFF00FFFFFF00FFFFFF0082
:10226800FFFFFF00FFFFFF00FFFFFF00FFFFFF0072
:10227800FFFFFF00FFFFFF00FFFFFF00FFFFFF0062
:10228800FFFFFF00FFFFFF00FFFFFF00FFFFFF0052
:10229800FFFFFF00FFFFFF00FFFFFF00FFFFFF0042
:1022A800FFFFFF00FFFFFF00FFFFFF00FFFFFF0032
:1022B800FFFFFF00FFFFFF00FFFFFF00FFFFFF0022
:1022C800FFFFFF00FFFFFF00FFFFFF00FFFFFF0012
:1022D800FFFFFF00FFFFFF00FFFFFF00FFFFFF0002
:1022E800FFFFFF00FFFFFF00FFFFFF00FFFFFF00F2
:1022F800FFFFFF00FFFFFF00FFFFFF00FFFFFF00E2
:10230800FFFFFF00FFFFFF00FFFFFF00FFFFFF00D1
:10231800FFFFFF00FFFFFF00FFFFFF00FFFFFF00C1
:10232800FFFFFF00FFFFFF00FFFFFF00FFFFFF00B1
:10233800FFFFFF00FFFFFF00FFFFFF00FFFFFF00A1
:10234800FFFFFF00FFFFFF00FFFFFF00FFFFFF0091
:10235800FFFFFF00FFFFFF00FFFFFF00FFFFFF0081
:10236800FFFFFF00FFFFFF00FFFFFF00FFFFFF0071
:10237800FFFFFF00FFFFFF00FFFFFF00FFFFFF0061
:10238800FFFFFF00FFFFFF00FFFFFF00FFFFFF0051
:10239800FFFFFF00FFFFFF00FFFEFF00FFFFFF0042
:1023A800FFFFFF00FFFFFF00FFFFFF00FEFEFE0034
:1023B800FDFFFD00FDFFFD00FDFFFD00E88BE800CF
:1023C800DC30DC00DE25DE00DD2BDD00DF26DF0073
:1023D800DA25DA00DF66DF00EECBEE00FBFFFB005C
:1023E800FFFFFF00FFFFFF00FFFFFF00FFFFFF00F1
:1023F800FFFFFF00FFFFFF00FFFFFF00FFFFFF00E1
:10240800FFFFFF00FFFFFF00FFFFFF00FFFFFF00D0
:10241800FFFFFF00FFFFFF00FFFFFF00FFFFFF00C0
:10242800FFFFFF00FFFFFF00FFFFFF00FFFFFF00B0
:10243800FFFFFF00FFFFFF00FFFFFF00FFFFFF00A0
:10244800FFFFFF00FFFFFF00FFFFFF00FFFFFF0090
:10245800FFFFFF00FFFFFF00FFFFFF00FFFFFF0080
:10246800FFFFFF00FEFEFE00FFFFFF00FBFAFB0080
:10247800EDBAED00DA3FDA00DE36DE00E9ACE9005D
:10248800FEFFFE00FDFFFD00FEFFFE00FFFFFF0058
:10249800FEFFFE00FFFFFF00FEFFFE009E9C9E0069
:1024A800484748001E181E001D131D00201A200052
:1024B800181218002C262C009E9A9E00F0EEF000B0
:1024C800FFFFFF00FFFFFF00FFFFFF00FFFFFF0010
:1024D800FFFFFF00FFFFFF00FFFFFF00FFFFFF0000
:1024E800FFFFFF00FFFFFF00FFFFFF00FFFFFF00F0
:1024F800FFFFFF00FFFFFF00FFFFFF00FFFFFF00E0
:10250800FFFFFF00FFFFFF00FFFFFF00FFFFFF00CF
:10251800FFFFFF00FFFFFF00FFFFFF00FFFFFF00BF
:10252800FFFFFF00FFFFFF00FFFFFF00FFFFFF00AF
:10253800FFFFFF00FFFFFF00FFFFFF00FFFFFF009F
:10254800FFFFFF00FFFFFF00FFFFFF00FFFFFF008F
:10255800FFFFFF00FFFFFF00FFFFFF00FFFFFF007F
:10256800FFFFFF00FFFFFF00FFFFFF00FFFFFF006F
:10257800FFFFFF00FFFFFF00FFFFFF00FFFFFF005F
:10258800FFFFFF00FFFFFF00FFFFFF00FFFFFF004F
:10259800FFFFFF00FFFFFF00FFFFFF00FFFFFF003F
:1025A800FFFFFF00FFFFFF00FFFFFF00FFFFFF002F
:1025B800FFFFFF00FFFFFF00FFFFFF00FFFFFF001F
:1025C800FFFFFF00FFFFFF00FFFFFF00FFFFFF000F
:1025D800FFFFFF00FFFFFF00FFFFFF00FFFFFF00FF
:1025E800FFFFFF00FFFFFF00FFFFFF00FFFFFF00EF
:1025F800FFFFFF00FFFFFF00FFFFFF00FFFFFF00DF
:10260800FFFFFF00FFFFFF00FFFFFF00FFFFFF00CE
:10261800FFFFFF00FFFEFF00FFFFFF00FFFFFF00BF
:10262800FFFFFF00FFFFFF00FFFFFF00FEFEFE00B1
:10263800FAFEFA00FDFFFD00D972D900DD2ADD009F
:10264800E02AE000DC2ADC00DF28DF00DE29DE00EB
:10265800E394E300FBF6FB00FEFEFE00FEFFFE0037
:10266800FFFFFF00FFFFFF00FFFFFF00FFFFFF006E
:10267800FFFFFF00FFFFFF00FFFFFF00FFFFFF005E
:10268800FFFFFF00FFFFFF00FFFFFF00FFFFFF004E
:10269800FFFFFF00FFFFFF00FFFFFF00FFFFFF003E
:1026A800FFFFFF00FFFFFF00FFFFFF00FFFFFF002E
:1026B800FFFFFF00FFFFFF00FFFFFF00FFFFFF001E
:1026C800FFFFFF00FFFFFF00FFFFFF00FFFFFF000E
:1026D800FFFFFF00FFFFFF00FFFEFF00FFFFFF00FF
:1026E800FFFFFF00FFFEFF00FFFFFF00FDFFFD00F3
:1026F800FDFFFD00F8EDF800DF62DF00DC2ADC00FA
:10270800E59AE500FFFFFF00FBFCFB00FEFEFE0074
:10271800FFFFFF00CDCDCD0046424600251C250019
:102728001E181E0021182100221922001B151B004B
:10273800514D5100DDDBDD00FEFEFE00FFFFFF0016
:10274800FFFFFF00FFFFFF00FFFFFF00FFFFFF008D
:10275800FFFFFF00FFFFFF00FFFFFF00FFFFFF007D
:10276800FFFFFF00FFFFFF00FFFFFF00FFFFFF006D
:10277800FFFFFF00FFFFFF00FFFFFF00FFFFFF005D
:10278800FFFFFF00FFFFFF00FFFFFF00FFFFFF004D
:10279800FFFFFF00FFFFFF00FFFFFF00FFFFFF003D
:1027A800FFFFFF00FFFFFF00FFFFFF00FFFFFF002D
:1027B800FFFFFF00FFFFFF00FFFFFF00FFFFFF001D
:1027C800FFFFFF00FFFFFF00FFFFFF00FFFFFF000D
:1027D800FFFFFF00FFFFFF00FFFFFF00FFFFFF00FD
:1027E800FFFFFF00FFFFFF00FFFFFF00FFFFFF00ED
:1027F800FFFFFF00FFFFFF00FFFFFF00FFFFFF00DD
:10280800FFFFFF00FFFFFF00FFFFFF00FFFFFF00CC
:10281800FFFFFF00FFFFFF00FFFFFF00FFFFFF00BC
:10282800FFFFFF00FFFFFF00FFFFFF00FFFFFF00AC
:10283800FFFFFF00FFFFFF00FFFFFF00FFFFFF009C
:10284800FFFFFF00FFFFFF00FFFFFF00FFFFFF008C
:10285800FFFFFF00FFFFFF00FFFFFF00FFFFFF007C
:10286800FFFFFF00FFFFFF00FFFFFF00FFFFFF006C
:10287800FFFFFF00FFFFFF00FFFFFF00FFFFFF005C
:10288800FFFFFF00FFFFFF00FFFFFF00FFFFFF004C
:10289800FFFFFF00FFFFFF00FFFFFF00FFFFFF003C
:1028A800FFFFFF00FFFFFF00FFFFFF00FDFFFD0030
:1028B800FAF8FA00E07DE000DF28DF00DE29DE001C
:1028C800DF2ADF00E129E100D732D700EAB0EA00C9
:1028D800FFFFFF00FCFCFC00FEFEFE00FEFEFE000B
:1028E800FFFFFF00FFFFFF00FFFFFF00FFFFFF00EC
:1028F800FFFFFF00FFFFFF00FFFFFF00FFFFFF00DC
:10290800FFFFFF00FFFFFF00FFFFFF00FFFFFF00CB
:10291800FFFFFF00FFFFFF00FFFFFF00FFFFFF00BB
:10292800FFFFFF00FFFFFF00FFFFFF00FFFFFF00AB
:10293800FFFFFF00FFFFFF00FFFFFF00FFFFFF009B
:10294800FFFFFF00FFFFFF00FFFFFF00FFFFFF008B
:10295800FFFFFF00FFFFFF00FFFFFF00FFFFFF007B
:10296800FFFFFF00FFFFFF00FFFFFF00FDFFFD006F
:10297800FEFEFE00FCFEFC00FEFFFE00E596E50004
:10298800D52FD500EBAAEB00FBF9FB00E9E9E9003C
:102998007B777B001D141D001E181E00211C2100C2
:1029A8002319230020172000281F28008783870069
:1029B800FFFFFF00FEFFFE00FFFFFF00FEFEFE0020
:1029C800FFFFFF00FFFFFF00FFFFFF00FFFFFF000B
:1029D800FFFFFF00FFFFFF00FFFFFF00FFFFFF00FB
:1029E800FFFFFF00FFFFFF00FFFFFF00FFFFFF00EB
:1029F800FFFFFF00FFFFFF00FFFFFF00FFFFFF00DB
:102A0800FFFFFF00FFFFFF00FFFFFF00FFFFFF00CA
:102A1800FFFFFF00FFFFFF00FFFFFF00FFFFFF00BA
:102A2800FFFFFF00FFFFFF00FFFFFF00FFFFFF00AA
:102A3800FFFFFF00FFFFFF00FFFFFF00FFFFFF009A
:102A4800FFFFFF00FFFFFF00FFFFFF00FFFFFF008A
:102A5800FFFFFF00FFFFFF00FFFFFF00FFFFFF007A
:102A6800FFFFFF00FFFFFF00FFFFFF00FFFFFF006A
:102A7800FFFFFF00FFFFFF00FFFFFF00FFFFFF005A
:102A8800FFFFFF00FFFFFF00FFFFFF00FFFFFF004A
:102A9800FFFFFF00FFFFFF00FFFFFF00FFFFFF003A
:102AA800FFFFFF00FFFFFF00FFFFFF00FFFFFF002A
:102AB800FFFFFF00FFFFFF00FFFFFF00FFFFFF001A
:102AC800FFFFFF00FFFFFF00FFFFFF00FFFFFF000A
:102AD800FFFFFF00FFFFFF00FFFFFF00FFFFFF00FA
:102AE800FFFFFF00FFFFFF00FFFFFF00FFFFFF00EA
:102AF800FFFFFF00FFFFFF00FFFFFF00FFFFFF00DA
:102B0800FFFFFF00FFFFFF00FFFFFF00FFFFFF00C9
:102B1800FFFFFF00FFFFFF00FFFFFF00FFFFFF00B9
:102B2800FDFEFD00FDFEFD00FFFFFF00FAF9FA00C3
:102B3800E287E200DA28DA00DD28DD00DC2ADC00A2
:102B4800DD26DD00DF51DF00F1D2F100FFFFFF00DD
:102B5800FDFFFD00FFFFFF00FFFFFF00FFFFFF007D
:102B6800FFFFFF00FFFFFF00FFFFFF00FFFFFF0069
:102B7800FFFFFF00FFFFFF00FFFFFF00FFFFFF0059
:102B8800FFFFFF00FFFFFF00FFFFFF00FFFFFF0049
:102B9800FFFFFF00FFFFFF00FFFFFF00FFFFFF0039
:102BA800FFFFFF00FFFFFF00FFFFFF00FFFFFF0029
:102BB800FFFFFF00FFFFFF00FFFFFF00FFFFFF0019
:102BC800FFFFFF00FFFFFF00FFFFFF00FFFFFF0009
:102BD800FEFFFE00FFFFFF00FFFFFF00FFFFFF00FB
:102BE800FFFFFF00FFFFFF00FFFEFF00FFFFFF00EA
:102BF800FFFFFF00FFFFFF00FDFFFD00FFFFFF00DD
:102C0800F0B9F000C746C7009B8C9B00332E3300F9
:102C1800160D16002319230022192200211821005D
:102C2800201720004B454B00C1C0C100FFFFFF002B
:102C3800FFFFFF00FFFFFF00FFFFFF00FFFFFF0098
:102C4800FFFFFF00FFFFFF00FFFFFF00FFFFFF0088
:102C5800FFFFFF00FFFFFF00FFFFFF00FFFFFF0078
:102C6800FFFFFF00FFFFFF00FFFFFF00FFFFFF0068
:102C7800FFFFFF00FFFFFF00FFFFFF00FFFFFF0058
:102C8800FFFFFF00FFFFFF00FFFFFF00FFFFFF0048
:102C9800FFFFFF00FFFFFF00FFFFFF00FFFFFF0038
:102CA800FFFFFF00FFFFFF00FFFFFF00FFFFFF0028
:102CB800FFFFFF00FFFFFF00FFFFFF00FFFFFF0018
:102CC800FFFFFF00FFFFFF00FFFFFF00FFFFFF0008
:102CD800FFFFFF00FFFFFF00FFFFFF00FFFFFF00F8
:102CE800FFFFFF00FFFFFF00FFFFFF00FFFFFF00E8
:102CF800FFFFFF00FFFFFF00FFFFFF00FFFFFF00D8
:102D0800FFFFFF00FFFFFF00FFFFFF00FFFFFF00C7
:102D1800FFFFFF00FFFFFF00FFFFFF00FFFFFF00B7
:102D2800FFFFFF00FFFFFF00FFFFFF00FFFFFF00A7
:102D3800FFFFFF00FFFFFF00FFFFFF00FFFFFF0097
:102D4800FFFFFF00FFFFFF00FFFFFF00FFFFFF0087
:102D5800FFFFFF00FFFFFF00FFFFFF00FFFFFF0077
:102D6800FFFFFF00FFFFFF00FFFFFF00FFFFFF0067
:102D7800FFFFFF00FFFFFF00FFFFFF00FFFFFF0057
:102D8800FFFFFF00FFFFFF00FFFFFF00FFFFFF0047
:102D9800FFFEFF00FFFFFF00FFFFFF00FFFFFF0038
:102DA800FFFFFF00FDFDFD00FEFFFE00DF80DF00EE
:102DB800DB27DB00DF28DF00DE29DE00DE28DE007F
:102DC800DF62DF00F6E8F600FEFFFE00FDFEFD0014
:102DD800FEFFFE00FEFFFE00FFFFFF00FFFFFF00FB
:102DE800FFFFFF00FFFFFF00FFFFFF00FFFFFF00E7
:102DF800FFFFFF00FFFFFF00FFFFFF00FFFFFF00D7
:102E0800FFFFFF00FFFFFF00FFFFFF00FFFFFF00C6
:102E1800FFFFFF00FFFFFF00FFFFFF00FFFFFF00B6
:102E2800FFFFFF00FFFFFF00FFFFFF00FFFFFF00A6
:102E3800FFFFFF00FFFFFF00FFFFFF00FFFFFF0096
:102E4800FFFFFF00FFFFFF00FFFFFF00FFFFFF0086
:102E5800FFFFFF00FFFFFF00FFFFFF00FFFFFF0076
:102E6800FFFFFF00FFFFFF00FFFFFF00FFFFFF0066
:102E7800FFFEFF00FFFFFF00FEFEFE00FFFFFF005A
:102E8800B6B6B600493549001E101E001F171F00B0
:102E980022172200221822002017200018121800DA
:102EA80088848800EDEDED00FFFFFF00FFFFFF00C5
:102EB800FFFFFF00FFFFFF00FFFFFF00FFFFFF0016
:102EC800FFFFFF00FFFFFF00FFFFFF00FFFFFF0006
:102ED800FFFFFF00FFFFFF00FFFFFF00FFFFFF00F6
:102EE800FFFFFF00FFFFFF00FFFFFF00FFFFFF00E6
:102EF800FFFFFF00FFFFFF00FFFFFF00FFFFFF00D6
:102F0800FFFFFF00FFFFFF00FFFFFF00FFFFFF00C5
:102F1800FFFFFF00FFFFFF00FFFFFF00FFFFFF00B5
:102F2800FFFFFF00FFFFFF00FFFFFF00FFFFFF00A5
:102F3800FFFFFF00FFFFFF00FFFFFF00FFFFFF0095
:102F4800FFFFFF00FFFFFF00FFFFFF00FFFFFF0085
:102F5800FFFFFF00FFFFFF00FFFFFF00FFFFFF0075
:102F6800FFFFFF00FFFFFF00FFFFFF00FFFFFF0065
:102F7800FFFFFF00FFFFFF00FFFFFF00FFFFFF0055
:102F8800FFFFFF00FFFFFF00FFFFFF00FFFFFF0045
:102F9800FFFFFF00FFFFFF00FFFFFF00FFFFFF0035
:102FA800FFFFFF00FFFFFF00FFFFFF00FFFFFF0025
:102FB800FFFFFF00FFFFFF00FFFFFF00FFFFFF0015
:102FC800FFFFFF00FFFFFF00FFFFFF00FFFFFF0005
:102FD800FFFFFF00FFFFFF00FFFFFF00FFFFFF00F5
:102FE800FFFFFF00FFFFFF00FFFFFF00FFFFFF00E5
:102FF800FFFFFF00FFFFFF00FFFFFF00FFFFFF00D5
:10300800FFFFFF00FFFFFF00FFFFFF00FFFFFF00C4
:10301800FFFFFF00FFFFFF00FFFFFF00FFFFFF00B4
:10302800FFFFFF00FEFFFE00EAA9EA00DD26DD0043
:10303800DF28DF00DE29DE00DE27DE00DA56DA00D0
:10304800F9F5F900FEFEFE00FEFEFE00FDFFFD00A4
:10305800FFFFFF00FFFFFF00FFFFFF00FFFFFF0074
:10306800FFFFFF00FFFFFF00FFFFFF00FFFFFF0064
:10307800FFFFFF00FFFFFF00FFFFFF00FFFFFF0054
:10308800FFFFFF00FFFFFF00FFFFFF00FFFFFF0044
:10309800FFFFFF00FFFFFF00FFFFFF00FFFFFF0034
:1030A800FFFFFF00FFFFFF00FFFFFF00FFFFFF0024
:1030B800FFFFFF00FFFFFF00FFFFFF00FFFFFF0014
:1030C800FFFFFF00FFFFFF00FFFFFF00FEFFFE0006
:1030D800FFFFFF00FFFFFF00FFFFFF00FFFFFF00F4
:1030E800FFFFFF00FFFFFF00FFFFFF00FFFFFF00E4
:1030F800FFFFFF00FFFFFF00FDFBFD0069636900A4
:10310800261B26001F191F001F1B1F002217220045
:1031180022182200211721001D171D00C0BEC00063
:10312800FBFDFB00FFFFFF00FFFFFF00FEFFFE00AF
:10313800FFFFFF00FFFFFF00FFFFFF00FFFFFF0093
:10314800FFFFFF00FFFFFF00FFFFFF00FFFFFF0083
:10315800FFFFFF00FFFFFF00FFFFFF00FFFFFF0073
:10316800FFFFFF00FFFFFF00FFFFFF00FFFFFF0063
:10317800FFFFFF00FFFFFF00FFFFFF00FFFFFF0053
:10318800FFFFFF00FFFFFF00FFFFFF00FFFFFF0043
:10319800FFFFFF00FFFFFF00FFFFFF00FFFFFF0033
:1031A800FFFFFF00FFFFFF00FFFFFF00FFFFFF0023
:1031B800FFFFFF00FFFFFF00FFFFFF00FFFFFF0013
:1031C800FFFFFF00FFFFFF00FFFFFF00FFFFFF0003
:1031D800FFFFFF00FFFFFF00FFFFFF00FFFFFF00F3
:1031E800FFFFFF00FFFFFF00FFFFFF00FFFFFF00E3
:1031F800FFFFFF00FFFFFF00FFFFFF00FFFFFF00D3
:10320800FFFFFF00FFFFFF00FFFFFF00FFFFFF00C2
:10321800FFFFFF00FFFFFF00FFFFFF00FFFFFF00B2
:10322800FFFFFF00FFFFFF00FFFFFF00FFFFFF00A2
:10323800FFFFFF00FFFFFF00FFFFFF00FFFFFF0092
:10324800FFFFFF00FFFFFF00FFFFFF00FFFFFF0082
:10325800FFFFFF00FFFFFF00FFFFFF00FFFFFF0072
:10326800FFFFFF00FFFFFF00FFFFFF00FFFFFF0062
:10327800FFFFFF00FFFFFF00FFFFFF00FFFFFF0052
:10328800FFFFFF00FFFFFF00FFFFFF00FFFFFF0042
:10329800FFFFFF00FFFFFF00FFFFFF00FFFFFF0032
:1032A800FEFFFE00F1D1F100DA31DA00DD2BDD009E
:1032B800DE29DE00DE28DE00D83ED800FAECFA006F
:1032C800FFFFFF00FFFFFF00FFFFFF00FFFFFF0002
:1032D800FFFFFF00FFFFFF00FFFFFF00FFFFFF00F2
:1032E800FFFFFF00FFFFFF00FFFFFF00FFFFFF00E2
:1032F800FFFFFF00FFFFFF00FFFFFF00FFFFFF00D2
:10330800FFFFFF00FFFFFF00FFFFFF00FFFFFF00C1
:10331800FFFFFF00FFFFFF00FFFFFF00FFFFFF00B1
:10332800FFFFFF00FFFFFF00FFFFFF00FFFFFF00A1
:10333800FFFFFF00FFFFFF00FFFFFF00FFFFFF0091
:10334800FFFFFF00FFFFFF00FFFFFF00FFFFFF0081
:10335800FFFFFF00FFFFFF00FFFFFF00FFFFFF0071
:10336800FFFFFF00FFFFFF00FFFFFF00FCFCFC006A
:10337800FDFDFD00C3C3C300302730001E141E002E
:1033880021182100201720002118210023192300CB
:103398001F161F00352B3500D3D7D300FFFFFF00C2
:1033A800FFFFFF00FFFFFF00FFFFFF00FFFFFF0021
:1033B800FFFFFF00FFFFFF00FFFFFF00FFFFFF0011
:1033C800FFFFFF00FFFFFF00FFFFFF00FFFFFF0001
:1033D800FFFFFF00FFFFFF00FFFFFF00FFFFFF00F1
:1033E800FFFFFF00FFFFFF00FFFFFF00FFFFFF00E1
:1033F800FFFFFF00FFFFFF00FFFFFF00FFFFFF00D1
:10340800FFFFFF00FFFFFF00FFFFFF00FFFFFF00C0
:10341800FFFFFF00FFFFFF00FFFFFF00FFFFFF00B0
:10342800FFFFFF00FFFFFF00FFFFFF00FFFFFF00A0
:10343800FFFFFF00FFFFFF00FFFFFF00FFFFFF0090
:10344800FFFFFF00FFFFFF00FFFFFF00FFFFFF0080
:10345800FFFFFF00FFFFFF00FFFFFF00FFFFFF0070
:10346800FFFFFF00FFFFFF00FFFFFF00FFFFFF0060
:10347800FFFFFF00FFFFFF00FFFFFF00FFFFFF0050
:10348800FFFFFF00FFFFFF00FFFFFF00FFFFFF0040
:10349800FFFFFF00FFFFFF00FFFFFF00FFFFFF0030
:1034A800FFFFFF00FFFFFF00FFFFFF00FFFFFF0020
:1034B800FFFFFF00FFFFFF00FFFFFF00FFFFFF0010
:1034C800FFFFFF00FFFFFF00FFFFFF00FFFFFF0000
:1034D800FFFFFF00FFFFFF00FFFFFF00FFFFFF00F0
:1034E800FFFFFF00FFFFFF00FFFFFF00FFFFFF00E0
:1034F800FFFFFF00FFFFFF00FFFFFF00FFFFFF00D0
:10350800FFFFFF00FFFFFF00FFFFFF00FFFFFF00BF
:10351800FFFFFF00FFFFFF00FFFFFF00FFFFFF00AF
:10352800F9EFF900DE59DE00E028E000DE29DE00D0
:10353800DD25DD00DC42DC00F4E1F400FBFFFB00EC
:10354800FDFFFD00FFFFFF00FFFFFF00FFFFFF0083
:10355800FFFFFF00FFFFFF00FFFFFF00FFFFFF006F
:10356800FFFFFF00FFFFFF00FFFFFF00FFFFFF005F
:10357800FFFFFF00FFFFFF00FFFFFF00FFFFFF004F
:10358800FFFFFF00FFFFFF00FFFFFF00FFFFFF003F
:10359800FFFFFF00FFFFFF00FFFFFF00FFFFFF002F
:1035A800FFFFFF00FFFFFF00FFFFFF00FFFFFF001F
:1035B800FFFFFF00FFFFFF00FFFFFF00FFFFFF000F
:1035C800FFFFFF00FFFFFF00FFFFFF00FFFFFF00FF
:1035D800FFFFFF00FFFFFF00FFFFFF00FFFFFF00EF
:1035E800FFFFFF00FEFEFE00FEFFFE00F1F1F1000E
:1035F8008E8C8E00231D23001F161F00201720000D
:103608002118210021182100211821001B151B0059
:103618004D384D00C989C900FDFBFD00FBFBFB00CF
:10362800FEFFFE00FFFFFF00FFFFFF00FFFFFF00A0
:10363800FFFFFF00FFFFFF00FFFFFF00FFFFFF008E
:10364800FFFFFF00FFFFFF00FFFFFF00FFFFFF007E
:10365800FFFFFF00FFFFFF00FFFFFF00FFFFFF006E
:10366800FFFFFF00FFFFFF00FFFFFF00FFFFFF005E
:10367800FFFFFF00FFFFFF00FFFFFF00FFFFFF004E
:10368800FFFFFF00FFFFFF00FFFFFF00FFFFFF003E
:10369800FFFFFF00FFFFFF00FFFFFF00FFFFFF002E
:1036A800FFFFFF00FFFFFF00FFFFFF00FFFFFF001E
:1036B800FFFFFF00FFFFFF00FFFFFF00FFFFFF000E
:1036C800FFFFFF00FFFFFF00FFFFFF00FFFFFF00FE
:1036D800FFFFFF00FFFFFF00FFFFFF00FFFFFF00EE
:1036E800FFFFFF00FFFFFF00FFFFFF00FFFFFF00DE
:1036F800FFFFFF00FFFFFF00FFFFFF00FFFFFF00CE
:10370800FFFFFF00FFFFFF00FFFFFF00FFFFFF00BD
:10371800FFFFFF00FFFFFF00FFFFFF00FFFFFF00AD
:10372800FFFFFF00FFFFFF00FFFFFF00FFFFFF009D
:10373800FFFFFF00FFFFFF00FFFFFF00FFFFFF008D
:10374800FFFFFF00FFFFFF00FFFFFF00FFFFFF007D
:10375800FFFFFF00FFFFFF00FFFFFF00FFFFFF006D
:10376800FFFFFF00FFFFFF00FFFFFF00FFFFFF005D
:10377800FFFFFF00FFFFFF00FFFFFF00FFFFFF004D
:10378800FFFFFF00FFFFFF00FFFFFF00FFFFFF003D
:10379800FFFFFF00FFFFFF00FFFFFF00FDFDFD0033
:1037A800E58EE500DD26DD00DC2ADC00DE27DE0014
:1037B800DD3ADD00F0C4F000FDFFFD00FBFFFB007B
:1037C800FEFEFE00FFFFFF00FEFEFE00FFFFFF0003
:1037D800FFFFFF00FFFFFF00FFFFFF00FFFFFF00ED
:1037E800FFFFFF00FFFFFF00FFFFFF00FFFFFF00DD
:1037F800FFFFFF00FFFFFF00FFFFFF00FFFFFF00CD
:10380800FFFFFF00FFFFFF00FFFFFF00FFFFFF00BC
:10381800FFFFFF00FFFFFF00FFFFFF00FFFFFF00AC
:10382800FFFFFF00FFFFFF00FFFFFF00FFFFFF009C
:10383800FFFFFF00FFFFFF00FFFFFF00FFFFFF008C
:10384800FFFFFF00FFFFFF00FFFFFF00FFFFFF007C
:10385800FFFFFF00FFFEFF00FFFFFF00FFFFFF006D
:10386800FFFFFF00FFFFFF00BEC0BE00534F530025
:103878001F171F001F171F002017200020172000E8
:103888002118210022192200130A130076727600EB
:10389800E9E5E900E99FE900E8B7E800FBFFFB007C
:1038A800FFFFFF00FFFFFF00FEFFFE00FFFFFF001E
:1038B800FFFFFF00FFFFFF00FFFFFF00FFFFFF000C
:1038C800FFFFFF00FFFFFF00FFFFFF00FFFFFF00FC
:1038D800FFFFFF00FFFFFF00FFFFFF00FFFFFF00EC
:1038E800FFFFFF00FFFFFF00FFFFFF00FFFFFF00DC
:1038F800FFFFFF00FFFFFF00FFFFFF00FFFFFF00CC
:10390800FFFFFF00FFFFFF00FFFFFF00FFFFFF00BB
:10391800FFFFFF00FFFFFF00FFFFFF00FFFFFF00AB
:10392800FFFFFF00FFFFFF00FFFFFF00FFFFFF009B
:10393800FFFFFF00FFFFFF00FFFFFF00FFFFFF008B
:10394800FFFFFF00FFFFFF00FFFFFF00FFFFFF007B
:10395800FFFFFF00FFFFFF00FFFFFF00FFFFFF006B
:10396800FFFFFF00FFFFFF00FFFFFF00FFFFFF005B
:10397800FFFFFF00FFFFFF00FFFFFF00FFFFFF004B
:10398800FFFFFF00FFFFFF00FFFFFF00FFFFFF003B
:10399800FFFFFF00FFFFFF00FFFFFF00FFFFFF002B
:1039A800FFFFFF00FFFFFF00FFFFFF00FFFFFF001B
:1039B800FFFFFF00FFFFFF00FFFFFF00FFFFFF000B
:1039C800FFFFFF00FFFFFF00FFFFFF00FFFFFF00FB
:1039D800FFFFFF00FFFFFF00FFFFFF00FFFFFF00EB
:1039E800FFFFFF00FFFFFF00FFFFFF00FFFFFF00DB
:1039F800FFFFFF00FFFFFF00FFFFFF00FFFFFF00CB
:103A0800FFFFFF00FFFFFF00FFFFFF00FFFFFF00BA
:103A1800FFFEFF00FBFFFB00FFFFFF00F2D4F200F8
:103A2800D827D800DF28DF00DD2CDD00DE2DDE0002
:103A3800E99BE900FFFFFF00FEFFFE00FFFFFF001C
:103A4800FFFFFF00FFFFFF00FFFFFF00FFFFFF007A
:103A5800FFFFFF00FFFFFF00FFFFFF00FFFFFF006A
:103A6800FFFFFF00FFFFFF00FFFFFF00FFFFFF005A
:103A7800FFFFFF00FFFFFF00FFFFFF00FFFFFF004A
:103A8800FFFFFF00FFFFFF00FFFFFF00FFFFFF003A
:103A9800FFFFFF00FFFFFF00FFFFFF00FFFFFF002A
:103AA800FFFFFF00FFFFFF00FFFFFF00FFFFFF001A
:103AB800FFFFFF00FFFFFF00FFFFFF00FFFFFF000A
:103AC800FFFFFF00FFFFFF00FFFFFF00FFFFFF00FA
:103AD800FFFFFF00FFFFFF00FFFEFF00FFFFFF00EB
:103AE800FFFEFF00908A90002E252E00201820004F
:103AF800211821002219220022192200221922004D
:103B080022192200120C12008B898B00FDFDFD008A
:103B1800FFFFFF00FFFFFF00D671D600F9EFF900A5
:103B2800FEFFFE00FDFFFD00FEFEFE00FFFFFF00A2
:103B3800FFFFFF00FFFFFF00FFFFFF00FFFFFF0089
:103B4800FFFFFF00FFFFFF00FFFFFF00FFFFFF0079
:103B5800FFFFFF00FFFFFF00FFFFFF00FFFFFF0069
:103B6800FFFFFF00FFFFFF00FFFFFF00FFFFFF0059
:103B7800FFFFFF00FFFFFF00FFFFFF00FFFFFF0049
:103B8800FFFFFF00FFFFFF00FFFFFF00FFFFFF0039
:103B9800FFFFFF00FFFFFF00FFFFFF00FFFFFF0029
:103BA800FFFFFF00FFFFFF00FFFFFF00FFFFFF0019
:103BB800FFFFFF00FFFFFF00FFFFFF00FFFFFF0009
:103BC800FFFFFF00FFFFFF00FFFFFF00FFFFFF00F9
:103BD800FFFFFF00FFFFFF00FFFFFF00FFFFFF00E9
:103BE800FFFFFF00FFFFFF00FFFFFF00FFFFFF00D9
:103BF800FFFFFF00FFFFFF00FFFFFF00FFFFFF00C9
:103C0800FFFFFF00FFFFFF00FFFFFF00FFFFFF00B8
:103C1800FFFFFF00FFFFFF00FFFFFF00FFFFFF00A8
:103C2800FFFFFF00FFFFFF00FFFFFF00FFFFFF0098
:103C3800FFFFFF00FFFFFF00FFFFFF00FFFFFF0088
:103C4800FFFFFF00FFFFFF00FFFFFF00FFFFFF0078
:103C5800FFFFFF00FFFFFF00FFFFFF00FFFFFF0068
:103C6800FFFFFF00FFFFFF00FFFFFF00FFFFFF0058
:103C7800FFFFFF00FFFFFF00FFFFFF00FFFFFF0048
:103C8800FFFFFF00FFFFFF00FFFFFF00FFFFFF0038
:103C9800FEFFFE00FFFFFF00FEFFFE00D94FD90028
:103CA800DF24DF00DC29DC00DE2ADE00E05BE00048
:103CB800FBFFFB00FFFFFF00FFFFFF00FFFFFF0010
:103CC800FFFFFF00FFFFFF00FFFFFF00FFFFFF00F8
:103CD800FFFFFF00FFFFFF00FFFFFF00FFFFFF00E8
:103CE800FFFFFF00FFFFFF00FFFFFF00FFFFFF00D8
:103CF800FFFFFF00FFFFFF00FFFFFF00FFFFFF00C8
:103D0800FFFFFF00FFFFFF00FFFFFF00FFFFFF00B7
:103D1800FFFFFF00FFFFFF00FFFFFF00FFFFFF00A7
:103D2800FFFFFF00FFFFFF00FFFFFF00FFFFFF0097
:103D3800FFFFFF00FFFFFF00FFFFFF00FFFFFF0087
:103D4800FFFFFF00FFFFFF00FFFFFF00FFFFFF0077
:103D5800FFFFFF00FFFFFF00FFFEFF00F4F4F40089
:103D680087838700181218002118210021182100C4
:103D78001F191F00211821002219220021182100D3
:103D88001C161C007E7A7E00FDFBFD00FFFFFF0075
:103D9800FFFFFF00FBFFFB00F9EFF900D677D60025
:103DA800FEFFFE00FEFEFE00FFFFFF00FFFFFF001C
:103DB800FFFFFF00FFFFFF00FFFFFF00FFFFFF0007
:103DC800FFFFFF00FFFFFF00FFFFFF00FFFFFF00F7
:103DD800FFFFFF00FFFFFF00FFFFFF00FFFFFF00E7
:103DE800FFFFFF00FFFFFF00FFFFFF00FFFFFF00D7
:103DF800FFFFFF00FFFFFF00FFFFFF00FFFFFF00C7
:103E0800FFFFFF00FFFFFF00FFFFFF00FFFFFF00B6
:103E1800FFFFFF00FFFFFF00FFFFFF00FFFFFF00A6
:103E2800FFFFFF00FFFFFF00FFFFFF00FFFFFF0096
:103E3800FFFFFF00FFFFFF00FFFFFF00FFFFFF0086
:103E4800FFFFFF00FFFFFF00FFFFFF00FFFFFF0076
:103E5800FFFFFF00FFFFFF00FFFFFF00FFFFFF0066
:103E6800FFFFFF00FFFFFF00FFFFFF00FFFFFF0056
:103E7800FFFFFF00FFFFFF00FFFFFF00FFFFFF0046
:103E8800FFFFFF00FFFFFF00FFFFFF00FFFFFF0036
:103E9800FFFFFF00FFFFFF00FFFFFF00FFFFFF0026
:103EA800FFFFFF00FFFFFF00FFFFFF00FFFFFF0016
:103EB800FFFFFF00FFFFFF00FFFFFF00FFFFFF0006
:103EC800FFFFFF00FFFFFF00FFFFFF00FFFFFF00F6
:103ED800FFFFFF00FFFFFF00FFFFFF00FFFFFF00E6
:103EE800FFFFFF00FFFFFF00FFFFFF00FFFFFF00D6
:103EF800FFFFFF00FFFFFF00FFFFFF00FFFFFF00C6
:103F0800FFFFFF00FFFFFF00FFFFFF00FFFFFF00B5
:103F1800FEFFFE00FFFFFF00ECADEC00D922D90048
:103F2800DF2ADF00E028E000D831D800F6E9F60003
:103F3800FDFFFD00FFFFFF00FFFFFF00FFFFFF0089
:103F4800FFFFFF00FFFFFF00FEFEFE00FFFFFF0078
:103F5800FFFFFF00FFFFFF00FFFFFF00FFFFFF0065
:103F6800FFFFFF00FFFFFF00FFFFFF00FFFFFF0055
:103F7800FFFFFF00FFFFFF00FFFFFF00FFFFFF0045
:103F8800FFFFFF00FFFFFF00FFFFFF00FFFFFF0035
:103F9800FFFFFF00FFFFFF00FFFFFF00FFFFFF0025
:103FA800FFFFFF00FFFFFF00FFFFFF00FFFFFF0015
:103FB800FFFFFF00FFFFFF00FFFFFF00FFFFFF0005
:103FC800FFFFFF00FFFFFF00FFFFFF00FFFFFF00F5
:103FD800FFFFFF00FFFFFF00F7F7F70066626600CC
:103FE800150C1500211821001E181E002218220089
:103FF800211821002219220022192200201720004E
:1040080066626600F3F3F300FFFFFF00FFFFFF00A7
:10401800FFFFFF00FDFFFD00FFFFFF00E8BFE80016
:10402800EBBFEB00FBFFFB00FFFFFF00FFFFFF0004
:10403800FFFFFF00FFFFFF00FFFFFF00FFFFFF0084
:10404800FFFFFF00FFFFFF00FFFFFF00FFFFFF0074
:10405800FFFFFF00FFFFFF00FFFFFF00FFFFFF0064
:10406800FFFFFF00FFFFFF00FFFFFF00FFFFFF0054
:10407800FFFFFF00FFFFFF00FFFFFF00FFFFFF0044
:10408800FFFFFF00FFFFFF00FFFFFF00FFFFFF0034
:10409800FFFFFF00FFFFFF00FFFFFF00FFFFFF0024
:1040A800FFFFFF00FFFFFF00FFFFFF00FFFFFF0014
:1040B800FFFFFF00FFFFFF00FFFFFF00FFFFFF0004
:1040C800FFFFFF00FFFFFF00FFFFFF00FFFFFF00F4
:1040D800FFFFFF00FFFFFF00FFFFFF00FFFFFF00E4
:1040E800FFFFFF00FFFFFF00FFFFFF00FFFFFF00D4
:1040F800FFFFFF00FFFFFF00FFFFFF00FFFFFF00C4
:10410800FFFFFF00FFFFFF00FFFFFF00FFFFFF00B3
:10411800FFFFFF00FFFFFF00FFFFFF00FFFFFF00A3
:10412800FFFFFF00FFFFFF00FFFFFF00FFFFFF0093
:10413800FFFFFF00FFFFFF00FFFFFF00FFFFFF0083
:10414800FFFFFF00FFFFFF00FFFFFF00FFFFFF0073
:10415800FFFFFF00FFFFFF00FFFFFF00FFFFFF0063
:10416800FFFFFF00FFFFFF00FFFFFF00FFFFFF0053
:10417800FFFFFF00FFFFFF00FFFFFF00FFFFFF0043
:10418800FFFFFF00FFFFFF00FFFFFF00FFFFFF0033
:10419800FFFFFF00FDFDFD00DE4ADE00DE29DE0038
:1041A800DF2ADF00D81ED800E59EE500FFFFFF00EC
:1041B800FEFEFE00FFFFFF00FFFFFF00FFFFFF0006
:1041C800FFFFFF00FFFFFF00FFFFFF00FFFFFF00F3
:1041D800FFFFFF00FFFFFF00FFFFFF00FFFFFF00E3
:1041E800FFFFFF00FFFFFF00FFFFFF00FFFFFF00D3
:1041F800FFFFFF00FFFFFF00FFFFFF00FFFFFF00C3
:10420800FFFFFF00FFFFFF00FFFFFF00FFFFFF00B2
:10421800FFFFFF00FFFFFF00FFFFFF00FFFFFF00A2
:10422800FFFFFF00FFFFFF00FFFFFF00FFFFFF0092
:10423800FFFFFF00FFFFFF00FFFFFF00FFFFFF0082
:10424800FFFFFF00FFFFFF00FFFFFF00FFFFFF0072
:10425800FFFFFF00FFFFFF007872780019101900B8
:104268002218220021182100211821001F191F00DF
:104278001E1A1E00231923001A141A00524E520047
:10428800EFEFEF00FFFFFF00FFFEFF00FFFFFF0063
:10429800FFFFFF00FEFFFE00FEFFFE00FEFAFE002D
:1042A800E4B1E400F8EEF800FEFEFE00FFFFFF00B8
:1042B800FFFFFF00FFFFFF00FFFFFF00FFFFFF0002
:1042C800FFFFFF00FFFFFF00FFFFFF00FFFFFF00F2
:1042D800FFFFFF00FFFFFF00FFFFFF00FFFFFF00E2
:1042E800FFFFFF00FFFFFF00FFFFFF00FFFFFF00D2
:1042F800FFFFFF00FFFFFF00FFFFFF00FFFFFF00C2
:10430800FFFFFF00FFFFFF00FFFFFF00FFFFFF00B1
:10431800FFFFFF00FFFFFF00FFFFFF00FFFFFF00A1
:10432800FFFFFF00FFFFFF00FFFFFF00FFFFFF0091
:10433800FFFFFF00FFFFFF00FFFFFF00FFFFFF0081
:10434800FFFFFF00FFFFFF00FFFFFF00FFFFFF0071
:10435800FFFFFF00FFFFFF00FFFFFF00FFFFFF0061
:10436800FFFFFF00FFFFFF00FFFFFF00FFFFFF0051
:10437800FFFFFF00FFFFFF00FFFFFF00FFFFFF0041
:10438800FFFFFF00FFFFFF00FFFFFF00FFFFFF0031
:10439800FFFFFF00FFFFFF00FFFFFF00FFFFFF0021
:1043A800FFFFFF00FFFFFF00FFFFFF00FFFFFF0011
:1043B800FFFFFF00FFFFFF00FFFFFF00FFFFFF0001
:1043C800FFFFFF00FFFFFF00FFFFFF00FFFFFF00F1
:1043D800FFFFFF00FFFFFF00FFFFFF00FFFFFF00E1
:1043E800FFFFFF00FFFFFF00FFFFFF00FFFFFF00D1
:1043F800FFFFFF00FFFFFF00FFFFFF00FFFFFF00C1
:10440800FFFFFF00FFFFFF00FFFFFF00FFFFFF00B0
:10441800FFFFFF00EAA6EA00DD2FDD00E029E0004B
:10442800DC26DC00DF59DF00F9EFF900FFFFFF00B1
:10443800FFFFFF00FFFFFF00FFFFFF00FFFFFF0080
:10444800FFFFFF00FFFFFF00FFFFFF00FFFFFF0070
:10445800FFFFFF00FFFFFF00FFFFFF00FFFFFF0060
:10446800FFFFFF00FFFFFF00FFFFFF00FFFFFF0050
:10447800FFFFFF00FFFFFF00FFFFFF00FFFFFF0040
:10448800FFFFFF00FFFFFF00FFFFFF00FFFFFF0030
:10449800FFFFFF00FFFFFF00FFFFFF00FFFFFF0020
:1044A800FFFFFF00FFFFFF00FFFFFF00FFFFFF0010
:1044B800FFFFFF00FFFFFF00FFFFFF00FFFFFF0000
:1044C800FFFFFF00FFFFFF00FFFFFF00FFFFFF00F0
:1044D800FFFFFF00B1AFB1002920290022192200F7
:1044E800211821001F191F0021182100211821005F
:1044F800211821001A141A00423E4200FBF9FB0061
:10450800FFFFFF00FFFEFF00FFFFFF00FFFFFF00B0
:10451800FFFFFF00FFFFFF00FFFFFF00FFFFFF009F
:10452800F0D4F000F1D5F100FDFDFD00FFFFFF0024
:10453800FFFFFF00FFFFFF00FFFFFF00FFFFFF007F
:10454800FFFFFF00FFFFFF00FFFFFF00FFFFFF006F
:10455800FFFFFF00FFFFFF00FFFFFF00FFFFFF005F
:10456800FFFFFF00FFFFFF00FFFFFF00FFFFFF004F
:10457800FFFFFF00FFFFFF00FFFFFF00FFFFFF003F
:10458800FFFFFF00FFFFFF00FFFFFF00FFFFFF002F
:10459800FFFFFF00FFFFFF00FFFFFF00FFFFFF001F
:1045A800FFFFFF00FFFFFF00FFFFFF00FFFFFF000F
:1045B800FFFFFF00FFFFFF00FFFFFF00FFFFFF00FF
:1045C800FFFFFF00FFFFFF00FFFFFF00FFFFFF00EF
:1045D800FFFFFF00FFFFFF00FFFFFF00FFFFFF00DF
:1045E800FFFFFF00FFFFFF00FFFFFF00FFFFFF00CF
:1045F800FFFFFF00FFFFFF00FFFFFF00FFFFFF00BF
:10460800FFFFFF00FFFFFF00FFFFFF00FFFFFF00AE
:10461800FFFFFF00FFFFFF00FFFFFF00FFFFFF009E
:10462800FFFFFF00FFFFFF00FFFFFF00FFFFFF008E
:10463800FFFFFF00FFFFFF00FFFFFF00FFFFFF007E
:10464800FFFFFF00FFFFFF00FFFFFF00FFFFFF006E
:10465800FFFFFF00FFFFFF00FFFFFF00FFFFFF005E
:10466800FFFFFF00FFFFFF00FFFFFF00FFFFFF004E
:10467800FFFFFF00FFFFFF00FFFFFF00FFFFFF003E
:10468800FFFFFF00FFFFFF00FEFFFE00FFFFFF0030
:10469800FCF8FC00E160E100DE27DE00D82BD80042
:1046A800DB28DB00EDB4ED00FDFEFD00FFFFFF00A1
:1046B800FFFFFF00FFFFFF00FFFFFF00FFFFFF00FE
:1046C800FFFFFF00FFFFFF00FFFFFF00FFFFFF00EE
:1046D800FFFFFF00FFFFFF00FFFFFF00FFFFFF00DE
:1046E800FFFFFF00FFFFFF00FFFFFF00FFFFFF00CE
:1046F800FFFFFF00FFFFFF00FFFFFF00FFFFFF00BE
:10470800FFFFFF00FFFFFF00FFFFFF00FFFFFF00AD
:10471800FFFFFF00FFFFFF00FFFFFF00FFFFFF009D
:10472800FFFFFF00FFFFFF00FFFFFF00FFFFFF008D
:10473800FFFFFF00FFFFFF00FFFFFF00FEFEFE0080
:10474800FFFFFF00FFFFFF00FFFFFF00FFFFFF006D
:10475800F3F3F300545054002015200021182100D1
:1047680021182100211821002118210022182200D7
:104778001F161F002E292E00E9E7E900FEFEFE00A5
:10478800FFFFFF00FFFFFF00FFFFFF00FFFFFF002D
:10479800FFFFFF00FFFFFF00FFFFFF00FFFFFF001D
:1047A800FBFDFB00E6C0E600FAF6FA00FFFFFF009B
:1047B800FFFFFF00FFFEFF00FEFFFE00FEFFFE0002
:1047C800FFFFFF00FFFFFF00FFFFFF00FFFFFF00ED
:1047D800FFFFFF00FFFFFF00FFFFFF00FFFFFF00DD
:1047E800FFFFFF00FFFFFF00FFFFFF00FFFFFF00CD
:1047F800FFFFFF00FFFFFF00FFFFFF00FFFFFF00BD
:10480800FFFFFF00FFFFFF00FFFFFF00FFFFFF00AC
:10481800FFFFFF00FFFFFF00FFFFFF00FFFFFF009C
:10482800FFFFFF00FFFFFF00FFFFFF00FFFFFF008C
:10483800FFFFFF00FFFFFF00FFFFFF00FFFFFF007C
:10484800FFFFFF00FFFFFF00FFFFFF00FFFFFF006C
:10485800FFFFFF00FFFFFF00FFFFFF00FFFFFF005C
:10486800FFFFFF00FFFFFF00FFFFFF00FFFFFF004C
:10487800FFFFFF00FFFFFF00FFFFFF00FFFFFF003C
:10488800FFFFFF00FFFFFF00FFFFFF00FFFFFF002C
:10489800FFFFFF00FFFFFF00FFFFFF00FFFFFF001C
:1048A800FFFFFF00FFFFFF00FFFFFF00FFFFFF000C
:1048B800FFFFFF00FFFFFF00FFFFFF00FFFFFF00FC
:1048C800FFFFFF00FFFFFF00FFFFFF00FFFFFF00EC
:1048D800FFFFFF00FFFFFF00FFFFFF00FFFFFF00DC
:1048E800FFFFFF00FFFFFF00FFFFFF00FFFFFF00CC
:1048F800FFFFFF00FFFFFF00FFFEFF00FFFFFF00BD
:10490800FFFFFF00FFFFFF00FFFEFF00FFFFFF00AC
:10491800F2CCF200DB37DB00DC29DC00DF28DF002B
:10492800E057E000F6EAF600FDFDFD00FFFFFF009E
:10493800FFFFFF00FFFFFF00FFFFFF00FFFFFF007B
:10494800FFFFFF00FFFFFF00FFFFFF00FFFFFF006B
:10495800FFFFFF00FFFFFF00FFFFFF00FFFFFF005B
:10496800FFFFFF00FFFFFF00FEFFFE00FFFFFF004D
:10497800FFFFFF00FFFFFF00FFFFFF00FFFFFF003B
:10498800FFFFFF00FFFFFF00FFFFFF00FFFFFF002B
:10499800FFFFFF00FFFFFF00FFFFFF00FFFFFF001B
:1049A800FFFFFF00FFFFFF00FFFFFF00FFFFFF000B
:1049B800FFFFFF00FFFFFF00FFFFFF00FFFFFF00FB
:1049C800FFFFFF00FFFFFF00FFFFFF00FFFFFF00EB
:1049D800B9B8B900261D2600221722001F191F008A
:1049E800211821001F191F00211821002317230057
:1049F800231A2300AEADAE00FEFEFE00FEFEFE0052
:104A0800FFFFFF00FFFFFF00FFFFFF00FFFFFF00AA
:104A1800FFFFFF00FFFFFF00FFFFFF00FFFFFF009A
:104A2800FEFFFE00EAD6EA00F4E4F400FFFFFF0010
:104A3800FFFFFF00FFFFFF00FFFFFF00FEFEFE007D
:104A4800FFFFFF00FEFEFE00FEFEFE00FFFFFF0070
:104A5800FFFFFF00FFFFFF00FFFFFF00FFFFFF005A
:104A6800FFFFFF00FFFFFF00FFFFFF00FFFFFF004A
:104A7800FFFFFF00FFFFFF00FFFFFF00FFFFFF003A
:104A8800FFFFFF00FFFFFF00FFFFFF00FFFFFF002A
:104A9800FFFFFF00FFFFFF00FFFFFF00FFFFFF001A
:104AA800FFFFFF00FFFFFF00FFFFFF00FFFFFF000A
:104AB800FFFFFF00FFFFFF00FFFFFF00FFFFFF00FA
:104AC800FFFFFF00FFFFFF00FFFFFF00FFFFFF00EA
:104AD800FFFFFF00FFFFFF00FFFFFF00FFFFFF00DA
:104AE800FFFFFF00FFFFFF00FFFFFF00FFFFFF00CA
:104AF800FFFFFF00FFFFFF00FFFFFF00FFFFFF00BA
:104B0800FFFFFF00FFFFFF00FFFFFF00FFFFFF00A9
:104B1800FFFFFF00FFFFFF00FFFFFF00FFFFFF0099
:104B2800FFFFFF00FFFFFF00FFFFFF00FFFFFF0089
:104B3800FFFFFF00FFFFFF00FFFFFF00FFFFFF0079
:104B4800FFFFFF00FFFFFF00FFFFFF00FFFFFF0069
:104B5800FFFFFF00FFFFFF00FFFFFF00FFFFFF0059
:104B6800FFFFFF00FFFFFF00FFFFFF00FFFFFF0049
:104B7800FFFFFF00FEFFFE00FFFFFF00FFFFFF003B
:104B8800FFFFFF00FFFEFF00FFFFFF00FBFAFB0037
:104B9800EA95EA00D924D900DF28DF00DD2DDD0001
:104BA800E596E500FFFFFF00FDFFFD00FFFFFF00AA
:104BB800FFFFFF00FFFFFF00FFFFFF00FFFFFF00F9
:104BC800FFFFFF00FFFFFF00FFFFFF00FFFFFF00E9
:104BD800FFFFFF00FFFFFF00FFFFFF00FFFFFF00D9
:104BE800FFFFFF00FFFFFF00FFFFFF00FFFFFF00C9
:104BF800FFFFFF00FFFFFF00FFFFFF00FFFFFF00B9
:104C0800FFFFFF00FFFFFF00FFFFFF00FFFFFF00A8
:104C1800FFFFFF00FFFFFF00FFFFFF00FFFFFF0098
:104C2800FFFFFF00FFFFFF00FFFFFF00FFFFFF0088
:104C3800FFFFFF00FFFFFF00FFFFFF00FFFFFF0078
:104C4800FFFFFF00FEFEFE00FFFFFF00F6F6F60086
:104C5800696369001A111A0021192100211821001D
:104C68002118210020172000211821001F191F00DA
:104C7800605C6000F4F4F400FFFFFF00FFFFFF003A
:104C8800FFFFFF00FFFFFF00FFFFFF00FFFFFF0028
:104C9800FFFFFF00FFFFFF00FFFFFF00FFFFFF0018
:104CA800FEFFFE00FEFEFE00E4C4E400FFFFFF007E
:104CB800FFFEFF00FFFFFF00FFFFFF00FFFFFF00F9
:104CC800FFFFFF00FFFFFF00FFFFFF00FFFFFF00E8
:104CD800FFFFFF00FFFFFF00FFFFFF00FFFFFF00D8
:104CE800FFFFFF00FFFFFF00FFFFFF00FFFFFF00C8
:104CF800FFFFFF00FFFFFF00FFFFFF00FFFFFF00B8
:104D0800FFFFFF00FFFFFF00FFFFFF00FFFFFF00A7
:104D1800FFFFFF00FFFFFF00FFFFFF00FFFFFF0097
:104D2800FFFFFF00FFFFFF00FFFFFF00FFFFFF0087
:104D3800FFFFFF00FFFFFF00FFFFFF00FFFFFF0077
:104D4800FFFFFF00FFFFFF00FFFFFF00FFFFFF0067
:104D5800FFFFFF00FFFFFF00FFFFFF00FFFFFF0057
:104D6800FFFFFF00FFFFFF00FFFFFF00FFFFFF0047
:104D7800FFFFFF00FFFFFF00FFFFFF00FFFFFF0037
:104D8800FFFFFF00FFFFFF00FFFFFF00FFFFFF0027
:104D9800FFFFFF00FFFFFF00FFFFFF00FFFFFF0017
:104DA800FFFFFF00FFFFFF00FFFFFF00FFFFFF0007
:104DB800FFFFFF00FFFFFF00FFFFFF00FFFFFF00F7
:104DC800FFFFFF00FFFFFF00FFFFFF00FFFFFF00E7
:104DD800FFFFFF00FFFFFF00FFFFFF00FFFFFF00D7
:104DE800FFFFFF00FFFFFF00FFFFFF00FFFFFF00C7
:104DF800FFFFFF00FFFFFF00FEFFFE00FFFFFF00B9
:104E0800FFFFFF00FFFFFF00FDFDFD00FBF3FB00C0
:104E1800DD54DD00DE26DE00E129E100D935D900C8
:104E2800F7E5F700FBFFFB00FDFFFD00FFFEFF00BD
:104E3800FFFFFF00FFFFFF00FFFFFF00FFFEFF0077
:104E4800FFFFFF00FFFFFF00FFFFFF00FFFFFF0066
:104E5800FFFFFF00FFFFFF00FFFFFF00FFFFFF0056
:104E6800FFFFFF00FFFFFF00FFFFFF00FFFFFF0046
:104E7800FFFFFF00FFFFFF00FFFFFF00FFFFFF0036
:104E8800FFFFFF00FFFFFF00FFFFFF00FFFFFF0026
:104E9800FFFFFF00FFFFFF00FFFFFF00FFFFFF0016
:104EA800FFFFFF00FFFFFF00FFFFFF00FFFFFF0006
:104EB800FFFFFF00FFFFFF00FFFFFF00FFFFFF00F6
:104EC800FFFFFF00FFFFFF00FFFFFF00EEECEE001B
:104ED800271E270021182100221A22002219220049
:104EE8002118210022182200211821002822280038
:104EF800D9D9D900FEFFFE00FFFFFF00FFFFFF002A
:104F0800FFFFFF00FFFFFF00FEFEFE00FFFFFF00A8
:104F1800FFFFFF00FFFFFF00FFFEFF00FFFFFF0096
:104F2800FDFFFD00FFFFFF00EBDBEB00FDFDFD00DB
:104F3800FCFEFC00FEFEFE00FFFFFF00FFFFFF007F
:104F4800FFFFFF00FFFFFF00FFFFFF00FFFFFF0065
:104F5800FFFFFF00FFFFFF00FFFFFF00FFFFFF0055
:104F6800FFFFFF00FFFFFF00FFFFFF00FFFFFF0045
:104F7800FFFFFF00FFFFFF00FFFFFF00FFFFFF0035
:104F8800FFFFFF00FFFFFF00FFFFFF00FFFFFF0025
:104F9800FFFFFF00FFFFFF00FFFFFF00FFFFFF0015
:104FA800FFFFFF00FFFFFF00FFFFFF00FFFFFF0005
:104FB800FFFFFF00FFFFFF00FFFFFF00FFFFFF00F5
:104FC800FFFFFF00FFFFFF00FFFFFF00FFFFFF00E5
:104FD800FFFFFF00FFFFFF00FFFFFF00FFFFFF00D5
:104FE800FFFFFF00FFFFFF00FFFFFF00FFFFFF00C5
:104FF800FFFFFF00FFFFFF00FFFFFF00FFFFFF00B5
:10500800FFFFFF00FFFFFF00FFFFFF00FFFFFF00A4
:10501800FFFFFF00FFFFFF00FFFFFF00FFFFFF0094
:10502800FFFFFF00FFFFFF00FFFFFF00FFFFFF0084
:10503800FFFFFF00FFFFFF00FFFFFF00FFFFFF0074
:10504800FFFFFF00FFFFFF00FFFFFF00FFFFFF0064
:10505800FFFFFF00FFFFFF00FFFFFF00FFFFFF0054
:10506800FFFFFF00FFFFFF00FFFFFF00FFFFFF0044
:10507800FFFFFF00FFFFFF00FFFFFF00FFFFFF0034
:10508800FFFFFF00FFFFFF00FEFEFE00F6DEF6005A
:10509800D81DD800DF28DF00DD29DD00E16EE10042
:1050A800FFFFFF00FEFEFE00FEFEFE00FFFFFF000A
:1050B800FFFFFF00FFFFFF00FFFFFF00FEFFFE00F6
:1050C800FFFFFF00FFFFFF00FFFFFF00FFFEFF00E5
:1050D800FFFFFF00FFFFFF00FFFFFF00FFFFFF00D4
:1050E800FFFEFF00FFFFFF00FFFFFF00FFFFFF00C5
:1050F800FFFFFF00FFFFFF00FFFFFF00FFFFFF00B4
:10510800FFFFFF00FFFFFF00FFFFFF00FFFFFF00A3
:10511800FFFFFF00FFFFFF00FFFFFF00FFFFFF0093
:10512800FFFFFF00FFFFFF00FFFFFF00FFFFFF0083
:10513800FFFFFF00FFFFFF00FFFFFF00FFFFFF0073
:10514800FFFFFF00FFFFFF00FFFFFF0096949600A0
:10515800170C1700231923002219220022192200F4
:1051680021182100211821001C131C009F9B9F005F
:10517800FFFFFF00FEFEFE00FFFFFF00FFFFFF0036
:10518800FFFFFF00FFFFFF00FFFFFF00FFFFFF0023
:10519800FFFFFF00FFFEFF00FEFFFE00FFFFFF0016
:1051A800FEFEFE00FEFEFE00FFFFFF00E5D5E50067
:1051B800FEFFFE00FEFFFE00FFFFFF00FFFFFF00F7
:1051C800FFFFFF00FFFFFF00FFFFFF00FFFFFF00E3
:1051D800FFFFFF00FFFFFF00FFFFFF00FFFFFF00D3
:1051E800FFFFFF00FFFFFF00FFFFFF00FFFFFF00C3
:1051F800FFFFFF00FFFFFF00FFFFFF00FFFFFF00B3
:10520800FFFFFF00FFFFFF00FFFFFF00FFFFFF00A2
:10521800FFFFFF00FFFFFF00FFFFFF00FFFFFF0092
:10522800FFFFFF00FFFFFF00FFFFFF00FFFFFF0082
:10523800FFFFFF00FFFFFF00FFFFFF00FFFFFF0072
:10524800FFFFFF00FFFFFF00FFFFFF00FFFFFF0062
:10525800FFFFFF00FFFFFF00FFFFFF00FFFFFF0052
:10526800FFFFFF00FFFFFF00FFFFFF00FFFFFF0042
:10527800FFFFFF00FFFFFF00FFFFFF00FFFFFF0032
:10528800FFFFFF00FFFFFF00FFFFFF00FFFFFF0022
:10529800FFFFFF00FFFFFF00FFFFFF00FFFFFF0012
:1052A800FFFFFF00FFFFFF00FFFFFF00FFFFFF0002
:1052B800FFFFFF00FFFFFF00FFFFFF00FFFFFF00F2
:1052C800FFFFFF00FFFFFF00FFFFFF00FFFFFF00E2
:1052D800FFFFFF00FFFFFF00FFFFFF00FFFFFF00D2
:1052E800FFFFFF00FFFFFF00FFFFFF00FFFFFF00C2
:1052F800FFFFFF00FFFFFF00FFFFFF00FEFFFE00B4
:10530800FFFFFF00FFFFFF00FBFFFB00EA99EA0039
:10531800DC21DC00E22AE200DF25DF00F9D1F90018
:10532800FFFFFF00FFFFFF00FFFFFF00FFFFFF0081
:10533800FFFFFF00F5F5F500F3F5F300F2F2F200D8
:10534800EDEFED00E5E5E500DFE1DF00DCDCDC00AA
:10535800DCDCDC00DCDCDC00DADADA00FFFFFF0092
:10536800FFFFFF00FFFFFF00FFFFFF00FFFFFF0041
:10537800FFFFFF00FFFFFF00FFFFFF00FFFFFF0031
:10538800FFFFFF00FFFFFF00FFFFFF00FFFFFF0021
:10539800FFFFFF00FFFFFF00FFFFFF00FFFFFF0011
:1053A800FFFFFF00FFFFFF00FFFFFF00FFFFFF0001
:1053B800FFFFFF00FFFFFF00FFFFFF00FFFFFF00F1
:1053C800FFFFFF00FFFFFF00FFFFFF003B373B0031
:1053D8001F151F002219220022192200221922005B
:1053E800201B20001E141E0047414700FFFFFF003E
:1053F800FEFEFE00FFFFFF00FFFEFF00FFFEFF00B6
:10540800FFFFFF00FFFFFF00FFFFFF00FFFFFF00A0
:10541800FFFFFF00FFFFFF00FFFFFF00FFFFFF0090
:10542800FFFFFF00FFFFFF00FFFFFF00E8D8E800D5
:10543800FEFFFE00FDFFFD00FFFFFF00FFFFFF0076
:10544800FFFFFF00FFFFFF00FFFFFF00FFFFFF0060
:10545800FFFFFF00FFFFFF00FFFFFF00FFFFFF0050
:10546800FFFFFF00FFFFFF00FFFFFF00FFFFFF0040
:10547800FFFFFF00FFFFFF00FFFFFF00FFFFFF0030
:10548800FFFFFF00FFFFFF00FFFFFF00FFFFFF0020
:10549800FFFFFF00FFFFFF00FFFFFF00FFFFFF0010
:1054A800FFFFFF00FFFFFF00FFFFFF00FFFFFF0000
:1054B800FFFFFF00FFFFFF00FFFFFF00FFFFFF00F0
:1054C800FFFFFF00FFFFFF00FFFFFF00FFFFFF00E0
:1054D800FFFFFF00FFFFFF00FFFFFF00FFFFFF00D0
:1054E800FFFFFF00FFFFFF00FFFFFF00FFFFFF00C0
:1054F800FFFFFF00FFFFFF00FFFFFF00FFFFFF00B0
:10550800FFFFFF00FFFFFF00FFFFFF00FFFFFF009F
:10551800FFFFFF00FFFFFF00FFFFFF00FFFFFF008F
:10552800FFFFFF00FFFFFF00FFFFFF00FFFFFF007F
:10553800FFFFFF00FFFFFF00FFFFFF00FFFFFF006F
:10554800FFFFFF00FFFFFF00FFFFFF00FFFFFF005F
:10555800FFFFFF00FFFFFF00FFFFFF00FFFFFF004F
:10556800FFFFFF00FFFFFF00FFFFFF00FFFFFF003F
:10557800FFFFFF00FFFFFF00FFFFFF00FEFEFE0032
:10558800FFFFFF00FFFFFF00FFFFFF00CF59CF0025
:10559800C422C400AE23AE009F289F009F9D9F0099
:1055A80094939400868286006F6B6F006C686C0021
:1055B800625E6200585458005751570056505600C2
:1055C800544B54004A444A00483F4800423C420079
:1055D800453B4500413B4100413841007D777D0016
:1055E800EFEFEF00FFFFFF00FCFEFC00FFFFFF00F6
:1055F800FFFFFF00FFFFFF00FFFFFF00FFFFFF00AF
:10560800FFFFFF00FFFFFF00FFFFFF00FFFFFF009E
:10561800FFFFFF00FFFFFF00FFFFFF00FFFFFF008E
:10562800FFFFFF00FFFFFF00FFFFFF00FFFFFF007E
:10563800FFFFFF00FFFFFF00FEFEFE00FFFFFF0071
:10564800FFFFFF00FFFFFF00CFCFCF00170E1700AF
:1056580022182200221922002219220022192200CF
:10566800201B200018101800CDCCCD00FFFFFF0034
:10567800FFFEFF00FFFFFF00FFFFFF00FFFEFF0030
:10568800FFFFFF00FFFFFF00FFFFFF00FFFFFF001E
:10569800FFFFFF00FFFFFF00FFFFFF00FFFFFF000E
:1056A800FFFFFF00FFFFFF00FFFFFF00F8F2F80019
:1056B800F7F3F700FDFFFD00FFFFFF00FFFFFF000E
:1056C800FEFEFE00FFFFFF00FFFFFF00FFFFFF00E1
:1056D800FFFFFF00FFFFFF00FFFFFF00FFFFFF00CE
:1056E800FFFFFF00FFFFFF00FFFFFF00FFFFFF00BE
:1056F800FFFFFF00FFFFFF00FFFFFF00FFFFFF00AE
:10570800FFFFFF00FFFFFF00FFFFFF00FFFFFF009D
:10571800FFFFFF00FFFFFF00FFFFFF00FFFFFF008D
:10572800FFFFFF00FFFFFF00FFFFFF00FFFFFF007D
:10573800FFFFFF00FFFFFF00FFFFFF00FFFFFF006D
:10574800FFFFFF00FFFFFF00FFFFFF00FFFFFF005D
:10575800FFFFFF00FFFFFF00FFFFFF00FFFFFF004D
:10576800FFFFFF00FFFFFF00FFFFFF00FFFFFF003D
:10577800FFFFFF00FFFFFF00FFFFFF00FFFFFF002D
:10578800FFFFFF00FFFFFF00FFFFFF00FFFFFF001D
:10579800FFFFFF00FFFFFF00FFFFFF00FFFFFF000D
:1057A800FFFFFF00FFFFFF00FFFFFF00FFFFFF00FD
:1057B800FFFFFF00FFFFFF00FFFFFF00FFFFFF00ED
:1057C800FFFFFF00FFFFFF00FFFFFF00FFFFFF00DD
:1057D800FFFFFF00FFFFFF00FFFFFF00FFFFFF00CD
:1057E800FFFFFF00FFFFFF00FFFFFF00FFFFFF00BD
:1057F800FFFEFF00D6D8D600A7A5A700929092007A
:105808006A666A004D424D002F2E2F00301C300072
:105818002D1B2D00261A26002A1A2A00271E2700CB
:10582800261D2600241B24002018200020172000F5
:105838002017200020162000211821002017200002
:1058480021182100211821002118210021182100E8
:1058580021182100221822001F161F0022192200D9
:105868004A444A00D9D7D900FFFFFF00FFFFFF00D5
:10587800FFFFFF00FFFFFF00FFFFFF00FFFFFF002C
:10588800FFFFFF00FFFFFF00FFFFFF00FFFFFF001C
:10589800FFFFFF00FFFFFF00FFFFFF00FFFFFF000C
:1058A800FFFFFF00FFFFFF00FFFFFF00FFFFFF00FC
:1058B800FFFFFF00FFFFFF00FFFFFF00FFFFFF00EC
:1058C800FFFFFF00FFFFFF00777777001E141E0021
:1058D800211821002219220022192200231A23004C
:1058E8001A151A0068636800F6F4F600FFFFFF0057
:1058F800FFFFFF00FFFFFF00FFFFFF00FFFFFF00AC
:10590800FFFFFF00FFFFFF00FFFFFF00FFFFFF009B
:10591800FFFFFF00FFFFFF00FFFFFF00FFFFFF008B
:10592800FFFFFF00FFFFFF00FFFFFF00FAFCFA0088
:10593800F6EDF600FFFFFF00FFFFFF00FFFFFF008F
:10594800FFFFFF00FFFFFF00FFFFFF00FFFFFF005B
:10595800FFFFFF00FFFFFF00FFFFFF00FFFFFF004B
:10596800FFFFFF00FFFFFF00FFFFFF00FFFFFF003B
:10597800FFFFFF00FFFFFF00FFFFFF00FFFFFF002B
:10598800FFFFFF00FFFFFF00FFFFFF00FFFFFF001B
:10599800FFFFFF00FFFFFF00FFFFFF00FFFFFF000B
:1059A800FFFFFF00FFFFFF00FFFFFF00FFFFFF00FB
:1059B800FFFFFF00FFFFFF00FFFFFF00FFFFFF00EB
:1059C800FFFFFF00FFFFFF00FFFFFF00FFFFFF00DB
:1059D800FFFFFF00FFFFFF00FFFFFF00FFFFFF00CB
:1059E800FFFFFF00FFFFFF00FFFFFF00FFFFFF00BB
:1059F800FFFFFF00FFFFFF00FFFFFF00FFFFFF00AB
:105A0800FFFFFF00FFFFFF00FFFFFF00FFFFFF009A
:105A1800FFFFFF00FFFFFF00FFFFFF00FFFFFF008A
:105A2800FFFFFF00FFFFFF00FFFFFF00FFFFFF007A
:105A3800FFFFFF00FFFFFF00FFFFFF00FFFFFF006A
:105A4800FFFFFF00FEFEFE00FCFCFC00F8F8F8007B
:105A5800F3F3F300EFEFEF00EAE9EA00B9B8B900B1
:105A6800A9A5A9007F7B7F00514D5100332A33003F
:105A7800150C1500191119001C131C001D141D000C
:105A88001F161F001E181E002118210021182100B2
:105A98002118210021182100211821001F191F0099
:105AA800221922002219220022192200211821007D
:105AB8002118210021182100211821002118210076
:105AC8002219220022192200211821002118210060
