:020000040800F2
:1000000000000220F90A0008C5010008C901000823
:10001000CD010008D1010008D50100080000000052
:10002000000000000000000000000000D9010008EE
:10003000DD01000800000000E1010008E501000802
:10004000410B0008410B0008410B0008410B000860
:10005000410B0008410B0008410B0008410B000850
:10006000410B0008410B0008410B0008410B000840
:10007000410B0008410B0008410B0008410B000830
:10008000410B0008410B0008410B0008410B000820
:10009000410B0008410B0008410B0008410B000810
:1000A000410B0008410B0008410B0008410B000800
:1000B000410B0008410B0008410B0008410B0008F0
:1000C000410B0008410B0008410B0008410B0008E0
:1000D000410B0008410B0008410B0008410B0008D0
:1000E000410B0008410B0008410B0008410B0008C0
:1000F000410B0008410B0008410B0008410B0008B0
:10010000410B0008410B0008410B0008410B00089F
:10011000410B0008410B0008410B0008410B00088F
:10012000410B0008410B0008410B0008410B00087F
:10013000410B0008410B0008410B0008410B00086F
:10014000410B0008410B0008410B0008410B00085F
:10015000410B0008410B0008410B0008410B00084F
:10016000410B0008410B0008410B0008410B00083F
:10017000410B0008410B0008410B0008410B00082F
:08018000410B0008410B0008CF
:10018800054B1A6812B11A68013A1A60034A1368D3
:1001980001331360704700BF2400002028000020AE
:1001A80082B0044A0190019B13601368002BFCD1B4
:1001B80002B0704724000020704700BF704700BF9E
:1001C800FEE700BFFEE700BFFEE700BFFEE700BF97
:1001D800704700BF704700BF704700BFFFF7D0BF30
:1001E80039493A4BD1F88820394842F47002C1F8AD
:1001F80088201A68002142F001021A6099601A6882
:1002080022F0847222F480321A6058601A6882B030
:1002180022F480221A60D960009101911A6842F490
:1002280080321A601A4603E0009BB3F5A06F09D02C
:10023800136803F400330193009B01330093019B7F
:10024800002BF1D0214B1B6813F4003318BF012396
:100258000193019B012B05D01B4B4FF000629A6064
:1002680002B07047194B1B491A6C1B4842F0805268
:100278001A640A6842F480420A609A689A609A6826
:1002880042F400429A609A6842F4A0529A60586018
:100298001A6842F080721A601A4611680B4B89017D
:1002A800FBD50E4A40F2056111609A6822F00302FC
:1002B8009A609A6842F002029A601A46936803F0BC
:1002C8000C03082BFAD1C7E700ED00E00038024024
:1002D800103000240070004008544007003C0240E1
:1002E8001848836803F00C03042B28D0082B09D086
:1002F800154B144A15499268C2F303128A5CD3401D
:100308000B6170474368416813F4800F436818BF56
:100318000F4801F03F020CBF0B49B0FBF2F1C3F3E9
:10032800881308BFB1FBF2F101FB03F2054B5B68D0
:10033800C3F3014301335B00B2FBF3F3D9E7044B8A
:10034800D7E700BF003802400024F4000000002076
:1003580000127A00900B0008000000202400002002
:10036800240000202C0000200A4B0B481A680021AA
:1003780042F001021A6099601A6822F0847222F42D
:1003880080321A6058601A6822F480221A60D96094
:10039800704700BF0038024010300024024B002292
:1003A8001A701870704700BF0238024082B00023EC
:1003B8000A4A019302E0B3F5A06F08D0136813F45A
:1003C800003F019B03F101030193019BF3D0034B11
:1003D8001868C0F3404002B0704700BF00380240C0
:1003E800034A136823F0F80343EAC000106070471B
:1003F80000380240014B1860704700BF00004742B8
:10040800064B002201281A701A7005D0042802D160
:1004180005221A707047704718707047703802408C
:10042800014B1860704700BF800E474230B4029CF1
:10043800064D40EA046001435B08013B41EA821231
:1004480042EA0340686030BC704700BF0038024091
:10045800014B1860704700BF600047420907034B13
:1004680041EA8010C3F88400704700BF003802409A
:10047800014B1860704700BF68004742014B186085
:10048800704700BF4C004742034A936823F0EC636F
:10049800194308439060704700380240034A936844
:1004A80023F07843194308439060704700380240AE
:1004B800034A936823F0030318439060704700BF12
:1004C80000380240024B986800F00C00704700BFEB
:1004D80000380240034A936823F0F0031843906001
:1004E800704700BF00380240034A936823F4E05382
:1004F80018439060704700BF00380240034A936871
:1005080023F4604343EAC00090607047003802401B
:1005180010B4214CA36803F00C03042B1BD0082B48
:100528001CD01E4B03601C4A1D499468C4F3031475
:100538000C5DE34043609468C4F382240C5D23FAA5
:1005480004F4846092685DF8044BC2F342328A5C1A
:10055800D340C3607047134B0360E4E76368616886
:1005680013F4800F636818BF0E4C01F03F020CBFF4
:100578000A49B4FBF2F1C3F3881308BFB1FBF2F1E7
:1005880001FB03F2044B5B68C3F3014301335B00D7
:10059800B2FBF3F30360C6E7003802400024F4001E
:1005A8001400002000127A0000F44073B3F5407F75
:1005B80009D108498B6820F0704223F4F81322F41B
:1005C800407213438B60034A136FC0F30B00184348
:1005D8001067704700380240014B1860704700BF31
:1005E8003C0E4742014B1860704700BF400E47421F
:1005F800014B1860704700BF5C014742044A136B07
:1006080019B923EA00001063704718431063704754
:1006180000380240044A536B19B923EA00005063BA
:10062800704718435063704700380240044A936B80
:1006380019B923EA00009063704718439063704724
:1006480000380240044A136C19B923EA0000106408
:10065800704718431064704700380240044A536CCE
:1006680019B923EA00005064704718435064704772
:1006780000380240044A136919B923EA00001061DE
:10068800704718431061704700380240044A5369A4
:1006980019B923EA00005061704718435061704748
:1006A80000380240044A936919B923EA00009061AE
:1006B800704718439061704700380240044A136A33
:1006C80019B923EA00001062704718431062704796
:1006D80000380240044A536A19B923EA00005062FC
:1006E800704718435062704700380240044A136D3F
:1006F80019B923EA00001065704718431065704760
:1007080000380240044A536D19B923EA00005065C5
:10071800704718435065704700380240044A936D8B
:1007280019B923EA0000906570471843906570472F
:1007380000380240044A136E19B923EA0000106613
:10074800704718431066704700380240044A536ED9
:1007580019B923EA0000506670471843506670477D
:1007680000380240044A137819B923EA00001070CF
:1007780070471843107070470D3802404309012B29
:100788000BD0022B094B0CBF1A6F5A6F00F01F03D6
:1007980022FA03F000F001007047044B1A6800F0D9
:1007A8001F0322FA03F000F00100704700380240EE
:1007B800024A536F43F08073536770470038024012
:1007C800034BDB68184214BF01200020704700BFAC
:1007D80000380240014B1870704700BF0E380240C5
:1007E80008B53C4B984224D03B4B98422BD03B4B0E
:1007F800984232D03A4B984239D03A4B984240D03E
:10080800394B984247D0394B98424ED0384B984292
:1008180055D0384B984200D008BD4FF48070012164
:10082800FFF728FF4FF480700021BDE80840FFF76C
:1008380021BF01200146FFF71DFF01200021BDE86F
:100848000840FFF717BF02200121FFF713FF02201E
:100858000021BDE80840FFF70DBF04200121FFF784
:1008680009FF04200021BDE80840FFF703BF082066
:100878000121FFF7FFFE08200021BDE80840FFF72F
:10088800F9BE10200121FFF7F5FE10200021BDE878
:100898000840FFF7EFBE20200121FFF7EBFE2020E4
:1008A8000021BDE80840FFF7E5BE40200121FFF721
:1008B800E1FE40200021BDE80840FFF7DBBE8020B4
:1008C8000121FFF7D7FE80200021BDE80840FFF78F
:1008D800D1BE00BF000002400004024000080240F0
:1008E800000C0240001002400014024000180240B0
:1008F800001C02400020024000222DE9F04313466C
:10090800D1F800E001274FF0030C04E00133102B6D
:1009180002F1020228D007FA03F404EA0E05A54200
:10092800F4D1D0F800800E790CFA02F4E44304EA1A
:100938000808C0F80080D0F8008006FA02F9013EE5
:1009480049EA0808012EC0F800800FD9C568CE7999
:100958002C40C460C56806FA02F401332C43102BFE
:10096800C46002F10202D6D1BDE8F083D0F8089045
:1009780091F805808E7904EA0909C0F80890D0F842
:10098800089008FA02F848EA0908C0F80880D0F880
:10099800048028EA05054560D0F8048006FA03F5C6
:1009A800ADB245EA08054560D0E700BF00234FF621
:1009B800FF720260037143718371C371704700BF96
:1009C80082B04FF480330193019B0B430193019B49
:1009D800C361C161019BC361C3690193C369019389
:1009E80002B070470369194214BF01200020704704
:1009F800006980B2704700BF4369194214BF0120E3
:100A080000207047406980B2704700BF018370477B
:100A1800418370470AB9418370470183704700BF1B
:100A2800416170474369594041617047CB0800EB09
:100A3800830001F0070110B48900046A0F238B407A
:100A480024EA03030362036A5DF8044B8A401343F4
:100A580003627047204B21481B68214A2149F0B5A1
:100A6800A0FB03039B090025013B0726F02783B061
:100A78005360082081F82370956001211660FFF704
:100A8800BDFD4FF470460122032317488DF8065028
:100A980069468DF80750154C00968DF804208DF89E
:100AA8000530FFF729FF25460F484FF48051FFF71F
:100AB800ADFF4FF4FA7323602368002BFCD10A487A
:100AC8004FF48051FFF7A4FF4FF4FA732B602368AB
:100AD800002BFCD1E8E700BF10000020D34D6210C6
:100AE80010E000E000ED00E0000C024024000020CF
:100AF800002103E00B4B5B58435004310A480B4B71
:100B080042189A42F6D30A4A02E0002342F8043B0C
:100B1800084B9A42F9D3FFF763FB00F00FF8FFF791
:100B280099FF7047900B0008000000202400002067
:100B3800240000202C000020FEE7000070B50E4BBA
:100B48000E4CE41AA41000251E46A54204D056F8FF
:100B5800253098470135F8E7FFF72EFB084C094B7D
:100B6800E41AA41000251E46A54204D056F82530E4
:100B780098470135F8E770BD900B0008900B000806
:080B8800900B0008900B00081F
:100B9000000000000000000001020304060708092D
:100BA000007A030A000000000102030401020304AA
:040BB0000607080923
:0400000508000AF9EC
:00000001FF
